:100000000C94F1000C9419010C9419010C94190131
:100010000C9419010C9419010C9419010C941901F8
:100020000C9419010C9419010C94BB030C942D042D
:100030000C9419010C9419010C9419010C941901D8
:100040000C9419010C9419010C9419010C941901C8
:100050000C9419010C9419010C9419010C94DC07EF
:100060000C9419010C9419010C9419010C941901A8
:100070000C9419010C9419010C9419010C94190198
:100080000C9419010C9419010C9419010C94190188
:100090000C9426080C9419010C9419010C94190164
:1000A0000C9419010C9419010C94190138023B02AB
:1000B0002A022E0234025C025C025C023F0243020E
:1000C00047024D0251025C02570207060504010077
:1000D000080A0B0C0D0900000000240027002A006C
:1000E0002D00300000000000250028002B002E000D
:1000F0003100000000002300260029002C002F0002
:1001000004040404040304050202020204030202BC
:10011000020206060606060604040202020404049D
:1001200008020110408040102040804080080204F6
:10013000018040201002011080102040402000006B
:10014000000200090F0000030401000C0000000081
:10015000000000000000000000000000080B00028A
:10016000020201000904000001020200000524004F
:1001700010010524010101042402060524060001E2
:100180000705810310004009040100020A00000075
:100190000705020240000007058302400000040337
:1001A000090412010002EF0201400A3101100001AE
:1001B000010203014C6974746C6520426972642009
:1001C000456C656374726F6E696373004C69747417
:1001D0006C652042697264205368616B6579000028
:1001E0002C1111241FBECFEFDAE0DEBFCDBF12E02D
:1001F000A0E0B1E0E2ECF7E202C005900D92AA386F
:10020000B107D9F723E0AAE8B2E001C01D92A43DEE
:10021000B207E1F710E0C1EFD0E004C02197FE0182
:100220000E94C513C03FD107C9F70E949A0C0C94D5
:10023000DF130C9400004091DC025091DD0220910C
:10024000DA023091DB0242175307B4F49091E800D0
:100250009570E1F39091E80092FD19C08093F10050
:100260008091DC029091DD0201968F739927892B92
:1002700019F48EEF8093E8008091DC029091DD020A
:1002800001969093DD028093DC0281E0089580E086
:100290000895CF92DF92EF92FF920F931F93CF9327
:1002A000DF931F92CDB7DEB7182F062FE42E862FCF
:1002B000880F8E5F99830E941B0183E00E941B01BF
:1002C000F12EC12E9981D92E8C2D8F19801798F47B
:1002D000F601E7FE02C0849101C080810E941B01EB
:1002E000182F80E00E941B018123FFEFCF1ADF0A45
:1002F0008111EACF01C081E00F90DF91CF911F9172
:100300000F91FF90EF90DF90CF900895DF92EF92E2
:10031000FF920F931F93CF93DF93D82E8A017B0117
:10032000E40EF51EEB01CE15DF0571F0D7FE03C01C
:10033000FE01849101C088810E941B0121968111D8
:10034000F2CF8FEF9FEF01C0C801DF91CF911F91D6
:100350000F91FF90EF90DF900895615030F0209161
:10036000F100FC0120830196F8CF289884E6809361
:10037000FA020895CF92DF92EF92FF920F931F93AC
:10038000CF93DF936C017A018B01C0E0D0E0CE15F2
:10039000DF0589F0D8016D918D01D601ED91FC91B9
:1003A0000190F081E02DC6010995892B11F47E01A1
:1003B00002C02196ECCFC701DF91CF911F910F9121
:1003C000FF90EF90DF90CF900895CF93DF931F922F
:1003D000CDB7DEB76983DC01ED91FC910280F3813A
:1003E000E02D41E050E0BE016F5F7F4F09950F9017
:1003F000DF91CF91089583E08093E9008091F2002E
:10040000882319F08AE38093E8000895FC0184852D
:10041000958597FD0BC09FB7F89482E08093E90023
:100420008091F2009FBF90E0019608959FB7F894E5
:1004300082E08093E9008091F2009FBF90E00895F0
:1004400090E0FC013197EF30F105B0F5EA5AFF4F2B
:100450000C94C513809180008F7703C08091800039
:100460008F7D80938000089580918000877FF9CFF1
:1004700084B58F7702C084B58F7D84BD0895809147
:1004800090008F7707C0809190008F7D03C080918E
:100490009000877F8093900008958091C0008F77AF
:1004A00003C08091C0008F7D8093C000089580912B
:1004B000C200877F8093C20008953FB7F89480916F
:1004C000D6029091D702A091D802B091D90226B558
:1004D000A89B05C02F3F19F00196A11DB11D3FBF7C
:1004E000BA2FA92F982F8827820F911DA11DB11D0A
:1004F000BC01CD0142E0660F771F881F991F4A9506
:10050000D1F7089585ED8093BC008091BC0084FDF7
:10051000FCCF1092680308954091AC02262F30E082
:10052000240F311D21323105DCF420916803243081
:10053000C9F4FC0180E090E0861758F43091AC02D9
:100540002191DC01A657BD4FA30FB11D2C9301963D
:10055000F3CF8091AC02680F6093AC0280E0089505
:1005600081E0089582E008950895E091FD02809170
:10057000FC02E81730F4F0E0EE5DFC4F808190E083
:1005800008958FEF9FEF08959091FD028091FC02F6
:10059000981750F4E92FF0E0EE5DFC4F208130E039
:1005A0009F5F9093FD0202C02FEF3FEFC9010895B6
:1005B0008091FC0290E02091FD02821B9109089538
:1005C000CF92DF92EF92FF920F931F93CF93DF931F
:1005D0007C01262F972F8A018091FE02882391F0BB
:1005E000C62FD72F6E01C40ED51ECC15DD0571F0B8
:1005F0006991D701ED91FC910190F081E02DC70147
:100600000995F3CF642F822F0E948C02C801DF91DD
:10061000CF911F910F91FF90EF90DF90CF900895B1
:10062000CF93DF931F92CDB7DEB769832091FE028F
:100630002223D1F020912103203240F021E030E04C
:10064000FC013383228380E090E015C08091FF029B
:10065000E82FF0E0E050FD4F998190838F5F809309
:10066000FF028093210305C061E0CE0101960E9444
:100670008C0281E090E00F90DF91CF910895089572
:1006800080E090E008950F931F93CF93DF931F9224
:10069000CDB7DEB782E0898342E450E06CE571E0DB
:1006A00080E80E9486010E94860CDC0112960D9162
:1006B0001C9113970115110569F0D801ED91FC917A
:1006C0000280F381E02DBE016F5F7F4FC801099565
:1006D00097FF07C089810F90DF91CF911F910F91F4
:1006E0000895F80100851185E5CF0E94750C90E012
:1006F0000895CF93DF931F92CDB7DEB7FC018485B9
:10070000958597FD05C02FEF3FEF358724870BC0F8
:10071000CE0101960E944B0C019719F4898190E05B
:1007200002C08FEF9FEF0F90DF91CF9108950F934D
:100730001F93CF93DF931F92CDB7DEB78C01FC01DF
:100740008485958597FF0EC0CE0101960E944B0CC3
:10075000019719F4298130E002C02FEF3FEFF80133
:1007600035872487F801848595850F90DF91CF9197
:100770001F910F9108951F920F920FB60F9211249F
:100780008F939F938091E1009091E100937F9093EC
:10079000E10083FF0FC01092E90091E09093EB001D
:1007A0001092EC0092E39093ED001092FB0298E01F
:1007B0009093F00082FF20C093E09093E900909125
:1007C000F200992319F09AE39093E8009091DE02E9
:1007D000992339F09091DE0291509093DE02992393
:1007E00089F19091FA02992339F09091FA0291508F
:1007F0009093FA02992341F184FF10C08091E200A6
:100800008E7E81608093E2008091E1008F7E8093F4
:10081000E1008091E0028E7E806111C080FF16C0F1
:100820008091E2008E7E80618093E2008091E10001
:100830008E7E8093E1008091E0028E7E81608093C5
:10084000E00204C05D9ACDCF289AD6CF9F918F91B8
:100850000F900FBE0F901F9018951F920F920FB61A
:100860000F921124CF92DF92EF92FF920F931F937A
:100870002F933F934F935F936F937F938F939F93A8
:10088000AF93BF93EF93FF93CF93DF93CDB7DEB7D3
:100890006C97DEBFCDBF1092E9008091E80083FF26
:1008A000EDC168E0CE0145960E94AD0182EF8093D4
:1008B000E8008D8987FF05C09091E80090FFFCCF8C
:1008C00003C09EEF9093E800982F907609F0C6C081
:1008D0009E892F89188D91110CC0803829F4809140
:1008E000E1028093F10002C01092F1001092F10039
:1008F00048C1422F50E0512B913051F4811141C138
:100900004130510509F03DC18091E1028D7F0BC05E
:10091000933061F4811135C14130510509F031C185
:100920008091E10282608093E1022BC1953041F415
:100930008091E80080FFFCCF20682093E30021C174
:10094000963009F05FC0EB8CFC8C1092E90010929D
:10095000DD021092DC02123091F51092DB0210924F
:10096000DA020E94430399E0BE016F5F7F4FDB0113
:10097000E92F1D92EA95E9F799831A8391E09E8306
:1009800090EA98879AEF99872091DC023091DD02F6
:10099000275F3F4F3C832B838D831092E900109299
:1009A000DD021092DC02F092DB02E092DA0249E012
:1009B00050E080E00E9486010E944303E2C0F09272
:1009C000DB02E092DA020E94860CDC011296ED90C6
:1009D000FC901397E114F10409F4C0C0D701ED9124
:1009E000FC910480F581E02DBE016B5E7F4FC70155
:1009F0000995009719F00CF0C4C0C7C0F701E08456
:100A0000F184E8CF973009F4C0C0983021F481E038
:100A10008093F100B6C0993009F0B3C0837009F03B
:100A2000B4C0EDE0F1E081E021E036E3908199236C
:100A300061F08093E9002093EB0091919093EC009A
:100A40003093ED008F5F873089F78EE78093EA005F
:100A50001092EA008F898093FB0293C08B8D9C8D4E
:100A60001092E9001092DD021092DC029093DB02FA
:100A70008093DA02898D811156C08E899D89913AC1
:100A800059F4813209F081C047E050E064E071E040
:100A900080E00E94860175C0913209F076C08332F1
:100AA00089F4888D90E0982F88272F89822BA0E0E9
:100AB000B0E08093000190930101A0930201B093F4
:100AC00003015FC0803269F48091E80082FFFCCFAF
:100AD00067E084E091E00E94AD018BEF8093E80035
:100AE00006C0823209F04DC08F8980930B0180913E
:100AF000DF02882319F0EEEFFAE002C0E0E0F8E050
:100B00008091040190910501A0910601B091070127
:100B1000803B9440A105B10509F07BC080910B0199
:100B200080FF93C076C00E94860CDC0112960D9166
:100B30001C9113970115110541F1D801ED91FC911C
:100B40000190F081E02DBE016B5E7F4FC8010995D9
:100B5000811117C0F80100851185ECCF113009F41F
:100B60004EC0133091F48F89882309F445C0823038
:100B700081F440E862E18CEC91E00E944901882315
:100B800021F08EEF8093E80079C081E28093EB0042
:100B900075C0813029F440E867E184EB91E0EDCF46
:100BA000833099F70E94860CDC011296ED90FC9040
:100BB00013978E010F5F1F4F6801E114F10479F064
:100BC000D701ED91FC910680F781E02DB801C701B6
:100BD0000995080F111DF701E084F184EECFD801CB
:100BE0001C92F60101900020E9F73197BF016C19C2
:100BF0007D0940E0C601C1CF6EE971E002C062EA42
:100C000071E06115710509F2FB01449150E080E843
:100C100040CF0FB6F894A8958091600088618093CA
:100C20006000109260000FBEA895EE3F2AE0F20728
:100C300039F08091FE0A9091FF0A91838083A1CFC1
:100C40001092FF0A1092FE0A9CCFEE3F8AE0F8074E
:100C500031F0808191819093FF0A8093FE0A87E7AB
:100C600097E7918380839BE088E10FB6F894A8957D
:100C7000809360000FBE9093600083CF6C960FB698
:100C8000F894DEBF0FBECDBFDF91CF91FF91EF9102
:100C9000BF91AF919F918F917F916F915F914F9194
:100CA0003F912F911F910F91FF90EF90DF90CF9088
:100CB0000F900FBE0F901F901895CF93DF93282FA2
:100CC00030E0F901E25CFE4F8491F901E15EFE4FF4
:100CD000D491F901E050FF4FC491CC2391F08111E0
:100CE0000E942002EC2FF0E0EE0FFF1FEE50FF4FAE
:100CF000A591B491EC91ED2381E090E021F480E0A6
:100D000002C080E090E0DF91CF9108951F93CF93D0
:100D1000DF93282F30E0F901E25CFE4F8491F90166
:100D2000E15EFE4FD491F901E050FF4FC491CC2316
:100D3000C9F0162F81110E942002EC2FF0E0EE0F77
:100D4000FF1FEC51FF4FA591B4918FB7F89411118B
:100D500005C09C91ED2FE095E92302C0EC91ED2BAD
:100D6000EC938FBFDF91CF911F910895CF93DF93C5
:100D700090E0FC01E15EFE4F2491FC01E050FF4F4A
:100D80008491882361F190E0880F991FFC01EA5259
:100D9000FF4FC591D491FC01EC51FF4FA591B49147
:100DA000611109C09FB7F8948881209582238883B8
:100DB000EC912E230BC0623061F49FB7F894388118
:100DC000822F809583238883EC912E2B2C939FBFB9
:100DD00006C08FB7F894E8812E2B28838FBFDF9150
:100DE000CF910895823108F08251E82FF0E0E65368
:100DF000FF4FE49180917B00E3FB222720F930E054
:100E000095E0220F331F9A95E1F78F7D282B2093D1
:100E10007B00E770E064E0937C0080917A0080645E
:100E200080937A0080917A0086FDFCCF80917800D3
:100E30002091790090E0922B08958F929F92AF922B
:100E4000BF92CF92DF92EF92FF926B017C010E94E2
:100E50005D024B015C01C114D104E104F104F1F025
:100E60000E945D02DC01CB0188199909AA09BB091E
:100E7000883E9340A105B10570F321E0C21AD10864
:100E8000E108F10888EE880E83E0981EA11CB11CD1
:100E9000C114D104E104F10419F7DDCFFF90EF9004
:100EA000DF90CF90BF90AF909F908F9008958F92DA
:100EB0009F92AF92BF92CF92DF92EF92FF920F93E9
:100EC0001F93CF93DF935C016B017A0180910B013B
:100ED000882309F45BC08091FB02882309F456C083
:100EE0008091E00280FF05C08091E00082608093E5
:100EF000E000E70110E00AEF83E0882E9AE3992EE4
:100F00002097D9F10E94750C81110AC0015009F493
:100F10003DC061E070E080E090E00E941D07F0CFEE
:100F2000282F30E0C217D3070CF48C2F4FB7F8945A
:100F30008092E9009091E80095FF1DC0282F30E0D5
:100F4000C21BD30BF601982F915020F08191809312
:100F5000F100FACFC20ED31E112319F09092E800CF
:100F600009C08091E80085FD06C09092E80011E07C
:100F7000209709F010E04FBFC3CF1111C3CF5D9888
:100F800084E68093DE021E141F0444F081E090E0AA
:100F9000F5019383828380E090E001C0C701DF9177
:100FA000CF911F910F91FF90EF90DF90CF90BF9066
:100FB000AF909F908F9008951F920F920FB60F924F
:100FC00011242F933F938F939F93AF93BF9380915F
:100FD000D2029091D302A091D402B091D502309167
:100FE000D10223E0230F2D3720F40196A11DB11D5E
:100FF00005C026E8230F0296A11DB11D2093D10242
:101000008093D2029093D302A093D402B093D502DE
:101010008091D6029091D702A091D802B091D902C6
:101020000196A11DB11D8093D6029093D702A09383
:10103000D802B093D902BF91AF919F918F913F9108
:101040002F910F900FBE0F901F9018951F920F9227
:101050000FB60F9211242F933F934F935F936F938B
:101060007F938F939F93AF93BF93EF93FF93809161
:10107000B900887F803609F49CC068F5883209F48D
:101080005BC090F4803109F454C038F4882309F42B
:10109000F6C0883009F44DC0F6C0883109F44CC060
:1010A000803209F45DC0EFC0803409F468C048F4B0
:1010B000803309F455C0883309F0E5C08093660396
:1010C000D8C0803509F44FC0883509F45DC0883434
:1010D00009F0D9C0D6C0883909F4C7C0A8F4883748
:1010E00009F467C038F4883609F463C0803709F41E
:1010F00060C0C9C0883809F4B8C0803909F45FC03D
:10110000803809F0C0C05BC0803B09F486C038F469
:10111000803A09F466C0883A09F47FC0B4C0803CC4
:1011200009F4A7C0883C09F4A4C0883B09F48AC02C
:10113000AAC08091630310C09091650380916403FD
:10114000981770F5E091650381E08E0F8093650339
:10115000F0E0EE5BFC4F80818093BB0085EC86C0A5
:10116000809366038EC0E091650381E08E0F8093CB
:1011700065038091BB00F0E0EE5BFC4F80839091B3
:101180006503809164036EC0E091650381E08E0F7A
:10119000809365038091BB00F0E0EE5BFC4F8083A1
:1011A0008091670381116DC081E08093620384EABE
:1011B00061C083E0809368031092D002CFCF80910A
:1011C000D002803208F051C0E091D00281E08E0F51
:1011D0008093D0028091BB00F0E0E055FD4F80830A
:1011E000BDCF85EC8093BC00109268038091D00243
:1011F000803230F4E091D002F0E0E055FD4F1082F3
:101200006091D00270E0E091AE02F091AF0280EB0D
:1012100092E009951092D00236C084E08093680372
:101220001092AD021092AC02E091AA02F091AB02D2
:1012300009958091AC02811105C081E08093AC02D8
:1012400010928A02E091AD0281E08E0F8093AD0290
:10125000F0E0E657FD4F80818093BB009091AD0296
:101260008091AC02981708F479CF85E88093BC0090
:101270000AC085EC8093BC001092680304C01092F1
:1012800066030E948202FF91EF91BF91AF919F91FF
:101290008F917F916F915F914F913F912F910F901F
:1012A0000FBE0F901F901895CF93DF93D82FC62FA6
:1012B00061E00E94B60660E08C2F0E94B60661E0F5
:1012C0008D2F0E94860661E070E080E090E00E9431
:1012D0001D078C2F0E945D06892BD9F46D2F70E0BD
:1012E00080E090E04AE00E94B8098FE591E00E941A
:1012F000F9096C2F70E080E090E04AE00E94B809A4
:1013000081E691E00E94FF0981E08093E20280E0A3
:1013100014C060E08D2F0E94860661E070E080E0DE
:1013200090E00E941D078C2F0E945D060197B1F28C
:1013300083E192E00E94FF0981E0DF91CF9108955F
:10134000BC01009791F0FC0101900020E9F7319772
:10135000AF01481B590BE0916903F0916A030280C9
:10136000F381E02D89E693E0099480E090E0089510
:101370008F929F92AF92BF920F931F93CF93DF9361
:10138000CDB7DEB7A1970FB6F894DEBF0FBECDBFC5
:1013900019A2423008F44AE08E010F5D1F4F842EDF
:1013A000912CA12CB12CA50194010E94A313E62F2E
:1013B000B901CA0101501109EA3014F4E05D01C01D
:1013C000E95CD801EC93232B242B252B61F7C80172
:1013D0000E94A009A1960FB6F894DEBF0FBECDBF44
:1013E000DF91CF911F910F91BF90AF909F908F9001
:1013F00008950C94A0098BE792E00C94A009CF9378
:10140000DF930E94A009EC010E94FB098C0F9D1F35
:10141000DF91CF9108954F925F926F927F928F925A
:101420009F92AF92BF92CF92DF92EF92FF926B01A9
:101430007C01B42E9B01AC010E948A13882319F011
:101440008EE792E027C026013701E89477F82FEF66
:101450003FEF4FE75FE7C301B2010E948A1381119A
:101460000DC02FEF3FEF4FE75FE7C301B2010E94CE
:10147000C01118161CF482E892E00CC02FEF3FEF69
:101480004FE75FE4C701B6010E941813181684F4F1
:1014900086E892E0FF90EF90DF90CF90BF90AF9002
:1014A0009F908F907F906F905F904F900C94A009C9
:1014B0002FEF3FEF4FE75FECC701B6010E94C0116D
:1014C00087FDE6CF20E030E0A901C701B6010E9408
:1014D000C01187FF11C0E0916903F0916A03019088
:1014E000F081E02D6DE289E693E009954C01F7FA71
:1014F000F094F7F8F09402C0812C912CA12C60E0BC
:1015000070E080E09FE3AB1441F020E030E040E287
:1015100051E40E94C511A394F6CF9B01AC01C70111
:10152000B6010E9454112B013C010E9437126B013D
:101530007C010E9466129B01AC01C301B2010E94B2
:1015400053112B013C014AE0C701B6010E94B809C2
:101550007C01E80CF91CBB2069F0E0916903F09173
:101560006A030190F081E02D6EE289E693E009952F
:10157000E80EF91EDB2CDD2021F120E030E040E216
:1015800051E4C301B2010E941D132B013C010E94D2
:1015900037124B01A12CB12C4AE0C501B4010E94C5
:1015A000B809E80EF91EC501B4010E9466129B013C
:1015B000AC01C301B2010E9453112B013C01DA942A
:1015C000DACFC701FF90EF90DF90CF90BF90AF9040
:1015D0009F908F907F906F905F904F900895909123
:1015E00068039111FCCF91E0909368039093670397
:1015F0002FEF2093660310926503260F2093640358
:101600009093630390916303880F892B8093630306
:1016100080916203813061F41092620380916303D0
:101620008093BB008091BC0083FDF8CF85EC01C0A6
:1016300085EE8093BC00809168038130E1F3809156
:101640006503861710F460916503A2E4B3E022E21B
:1016500033E0F9018E2F821B861718F48D91819348
:10166000F9CF862F0895382F2091210390912003E0
:10167000213208F049C0809168038111FCCF42E01B
:1016800040936803309367033FEF309366031092F3
:10169000650320936403A0E0B3E042E453E0FA0161
:1016A0003E2F341B321718F43D913193F9CF10922D
:1016B000630320916303990F922B9093630390919E
:1016C0006203913061F410926203909163039093EE
:1016D000BB009091BC0093FDF8CF95EC01C095EE56
:1016E0009093BC00909168039230E1F3909166036F
:1016F0009F3F79F080916603803241F080916603CC
:10170000803331F084E005C081E003C082E001C095
:1017100083E01092FF02109221031092FE020895BE
:101720009F92AF92BF92CF92DF92EF92FF920F9370
:101730001F93CF93DF93982E7B01D42F10E0C0E04E
:1017400001E0C42ED12C1D1708F045C08091C503BF
:101750000093FE02809320031092FF021092210357
:10176000692D89EB93E00E94100381E00E94330B06
:101770008091C5030093FE02809320031092FF0224
:10178000109221039601211B31092132310514F0F9
:1017900020E230E0622F213208F060E20E94EF0A7E
:1017A0001092FD028093FC029091FC028091FD0258
:1017B000981759F05701AC0EB11C89EB93E00E94C9
:1017C000C402F5018083CF5FEFCF9D2FD13208F0A7
:1017D00090E2190FB8CF8C2FDF91CF911F910F910D
:1017E000FF90EF90DF90CF90BF90AF909F900895C3
:1017F000CF93DF931F92CDB7DEB741E0BE016F5F9D
:101800007F4F0E94900B89810F90DF91CF910895B7
:10181000CF93C82F8091C50391E09093FE028093EF
:1018200020031092FF02109221036BE689EB93E0F4
:101830000E9410036C2F89EB93E00E94100381E05B
:101840000E94330B81E0CF9108951092FD02109217
:10185000FC021092FF02109221031092680381E0B3
:10186000809367031092620361E082E00E94860623
:1018700061E083E00E948606E9EBF0E080818E7FE4
:10188000808380818D7F808388E48093B80085E4A5
:101890008093BC000895FC018091FB02811103C07C
:1018A0008FEF9FEF08959FB7F89482E08093E9004F
:1018B0002091F20030E01216130614F421E030E01B
:1018C0002115310559F0289884E68093FA02809119
:1018D000F10080838091F200882319F09FBFC90135
:1018E00008958BE68093E800F9CF2FB7F89483E052
:1018F0008093E9009091E800892F807295FF04C0E1
:101900009091F20080E4891B2FBF08958091CC0351
:1019100081110DC082E08093C80384E08093C903E5
:101920001092CB031092CA0381E08093CC0388EC21
:1019300093E00895CF93DF9300D000D000D0CDB7CF
:10194000DEB7789484B5826084BD84B5816084BD3F
:1019500085B5826085BD85B5816085BD80916E004D
:10196000816080936E00109281008091810082607E
:1019700080938100809181008160809381008091BB
:1019800080008160809380008091910082608093CC
:1019900091008091910081608093910080919000EE
:1019A0008160809390008091C10084608093C10029
:1019B0008091C10082608093C1008091C1008160EC
:1019C0008093C1008091C30081608093C3008091A7
:1019D000C00082608093C0008091C20081608093CB
:1019E000C20080917A00846080937A0080917A00AE
:1019F000826080937A0080917A00816080937A007F
:101A000080917A00806880937A001092FB02109295
:101A1000E1021092E0028091D70081608093D700AC
:101A200080EA8093D80089B5806189BD89B58260DC
:101A300089BD09B400FEFDCF61E070E080E090E078
:101A40000E941D078091D8008F7C80618093D80010
:101A50008091E000807F8093E0008091E1008E7EA5
:101A60008093E1008DE08093E200559A209AEEEF9A
:101A7000FFE7859194918B3F9C4D19F481E0809311
:101A8000DF028FEF9FEF909376038093750361E001
:101A90008EE10E94B60661E081E10E94B60661E037
:101AA0008EE10E94860661E081E10E9486060EE1D9
:101AB00010E08091E202882371F18091F60290910A
:101AC000F702A091F802B091F9020196A11DB11D93
:101AD0008093F6029093F702A093F802B093F90274
:101AE00088359B41A105B105B4F0F090F502F1E015
:101AF000FF26F092F5026F2D8EE10E9486066F2D73
:101B000081E10E9486061092F6021092F70210926E
:101B1000F8021092F9028091F402882371F1809109
:101B2000F6029091F702A091F802B091F9020196A5
:101B3000A11DB11D8093F6029093F702A093F802C5
:101B4000B093F902803C944DA140B105B4F0F090FF
:101B5000F50281E0F826F092F5026F2D8EE10E94E9
:101B600086066F2D81E10E9486061092F602109281
:101B7000F7021092F8021092F90286E10E945D06C7
:101B8000892B99F462E370E080E090E00E941D07E9
:101B900086E10E945D06892B41F486E10E945D0684
:101BA000892BD9F391E09093F3028091F30288237B
:101BB00009F44BC31092F3021092E2021092F40265
:101BC0008AE691E00E94FF090E94FB0968EC70E040
:101BD00080E090E00E941D078EE991E00E94F909E3
:101BE00087E10E94F206BC01990F880B990B0E94B5
:101BF000681220E030E040EA5BE30E941D136B01B5
:101C00007C016093EF027093F0028093F102909355
:101C1000F20226E636E646E650E40E94C01187FF4F
:101C20000FC020E030E040E450E4C701B6010E945C
:101C3000181318162CF483E192E00E94FF0916C0D5
:101C400088EA91E00E94F9096091EF027091F00238
:101C50008091F1029091F20242E00E940B0A83E42B
:101C600092E00E94FF09E1E0E093E20281EB91E063
:101C70000E94F90964E185E10E9454098BEB91E02F
:101C80000E94F90961E083E10E94540985EC91E02A
:101C90000E94F90960E082E10E9454098FEC91E012
:101CA0000E94F90964E085E00E94540989ED91E001
:101CB0000E94F9096DE08CE00E94540983EE91E0E6
:101CC0000E94F9096FE088E00E9454098DEE91E0CE
:101CD0000E94F90966E087E00E94540987EF91E0CD
:101CE0000E94F9090E94250C8091C703F1E0F0934E
:101CF000FE02809320031092FF021092210360E005
:101D000089EB93E00E94100381E00E94330B88234B
:101D100039F0C12CD12C2AE7E22E24ECF22E34C06B
:101D200062E08091C7030E94EF0A1092FD02809347
:101D3000FC02882371F389EB93E00E94C402F82E21
:101D400089EB93E00E94C4023F2C212CB101682B47
:101D500095E0769567959A95E1F772FF09C07195C0
:101D60006195710980E090E00E946612905804C06D
:101D700080E090E00E94661220E030E040E05EE308
:101D80000E941D136B017C0142E0C701B6010E9455
:101D90000B0A81E092E00E94F90920E030E040EA7D
:101DA00051E4C701B6010E94181318167CF420E014
:101DB00030E040EF51E4C701B6010E94C01187FF37
:101DC00005C082E192E00E94FF0907C081E691E030
:101DD0000E94FF0921E02093E20283E092E00E944A
:101DE000F9090E94250C85E70E94F80B883909F053
:101DF0007AC18EE092E00E94FF0987E192E00E94A2
:101E0000F9098BE60E94F80B887F83600E94080C1A
:101E10008BE60E94F80B8BE60E94F80B8F7B0E94EA
:101E2000080C8EE1882E912C46E0BE016F5F7F4F3B
:101E300083E40E94900BA980B12CBA2CAA248A8139
:101E4000A82ACB80D12CDC2CCC248C81C82AED8014
:101E5000F12CFE2CEE248E81E82A8091E9029091EB
:101E6000EA02A80EB91EB092EA02A092E90280919D
:101E7000EB029091EC02C80ED91ED092EC02C092F7
:101E8000EB028091ED029091EE02E80EF91EF092C5
:101E9000EE02E092ED0281E0881A910829F6EEE167
:101EA0008E2E912C46E0BE016F5F7F4F8BE30E9428
:101EB000900BE981F0E0FE2FEE278A81E82B2B8141
:101EC00030E0322F22278C81282B6D80712C762CCC
:101ED00066248E81682A8091E3029091E402E80FE3
:101EE000F91FF093E402E093E3028091E502909100
:101EF000E602280F391F3093E6022093E502809115
:101F0000E7029091E802680E791E7092E8026092F2
:101F1000E70291E0891A910829F6C501B8010E94EB
:101F20008F135B017093EA026093E902C601B80166
:101F30000E948F137093EC026093EB02C701B8010B
:101F40000E948F137093EE026093ED02CF01B801EF
:101F50000E948F137093E4026093E302C901B801F9
:101F60000E948F137093E6026093E502C301B801EB
:101F70000E948F137093E8026093E70283E40E944B
:101F8000F80BF82E84E40E94F80B6F2D70E0762F8A
:101F90006627682B6A197B09072E000C880B990BA2
:101FA0000E94681220E030E043E053E40E94C51133
:101FB0002B013C0142E00E940B0A8FE591E00E9458
:101FC000F90985E40E94F80BF82E86E40E94F80BCC
:101FD0006F2D70E0762F6627682B8091EB02909131
:101FE000EC02681B790B072E000C880B990B0E94E2
:101FF000681220E030E043E053E40E94C5114B0139
:102000005C0142E00E940B0A8FE591E00E94F90911
:1020100087E40E94F80BF82E88E40E94F80B6F2DDD
:1020200070E0762F6627682B8091ED029091EE028A
:10203000681B790B072E000C880B990B0E94681205
:1020400020E030E043E053E40E94C5116B017C01C5
:1020500042E00E940B0A20E030E040E05FE3C30171
:10206000B2010E94C01187FF37C020E030E040E09D
:102070005FEBC301B2010E94181318166CF520E043
:1020800030E040E05FE3C501B4010E94C01187FF6A
:1020900023C020E030E040E05FEBC501B4010E94C6
:1020A00018131816CCF420E030E040E05FE3C701DD
:1020B000B6010E94C01187FF0FC020E030E040E071
:1020C0005FEBC701B6010E94181318162CF482E1C9
:1020D00092E00E94FF0907C081E691E00E94FF099B
:1020E000E1E0E093E20297E2C92E91E0D92E760179
:1020F000F7018081F2E0EF0EF11C60E00E94B6066D
:1021000065E070E080E090E00E941D072BE3E2169E
:1021100021E0F20669F760E085E00E94B60660E023
:1021200081E00E94B60660E080E00E94B60660E0B2
:102130008DE00E94B60660E08FE00E94B60660E087
:1021400087E00E94B60664E670E080E090E00E94BE
:102150001D0783E1E82E81E0F82E82E292E00E94E2
:10216000F909F701819191917F010E94F9098FE2AC
:1021700092E00E94F909F601B080F2E0CF0ED11C86
:102180008B2D0E94F2068B2D0E94F20661E070E01A
:1021900080E090E00E941D078B2D0E94F20661E016
:1021A00070E080E090E00E941D078B2D0E94F206F7
:1021B00061E070E080E090E00E941D078B2D0E949E
:1021C000F20661E070E080E090E00E941D078B2D38
:1021D0000E94F20661E070E080E090E00E941D073E
:1021E0008B2D0E94F20661E070E080E090E00E949A
:1021F0001D078B2D0E94F206BC01990F880B990BCD
:102200000E94681220E030E040EA5BE30E941D1368
:1022100042E00E940B0A0E94FB0927E2E21621E03D
:10222000F20609F09ACF0E94FB098091E20288230E
:1022300019F083E392E005C081E08093F4028EE41C
:1022400092E00E94FF090E94FB09E0E0F0E0309775
:1022500009F42FCC09952DCCE9E6F3E01382128224
:1022600088EE93E0A0E0B0E084839583A683B783F3
:102270002FE331E0318320832FEF3FEF3587248731
:10228000E9EBF3E01382128284839583A683B783FC
:1022900081E591E09183808388E48093C70388E699
:1022A0008093C50308955058BB27AA270E946B113D
:1022B0000C94DE120E94D01238F00E94D71220F047
:1022C00039F49F3F19F426F40C94CD120EF4E095E6
:1022D000E7FB0C94C712E92F0E94EF1258F3BA17CC
:1022E000620773078407950720F079F4A6F50C942C
:1022F00011130EF4E0950B2EBA2FA02D0B01B9018E
:1023000090010C01CA01A0011124FF27591B99F06B
:10231000593F50F4503E68F11A16F040A22F232F77
:10232000342F4427585FF3CF469537952795A795C7
:10233000F0405395C9F77EF41F16BA0B620B730B6E
:10234000840BBAF09150A1F0FF0FBB1F661F771FDF
:10235000881FC2F70EC0BA0F621F731F841F48F494
:10236000879577956795B795F7959E3F08F0B0CF1D
:102370009395880F08F09927EE0F97958795089504
:102380000E94A31208F481E008950E94D9110C94D0
:10239000DE120E94D71258F00E94D01240F029F4A9
:1023A0005F3F29F00C94C71251110C9412130C9436
:1023B000CD120E94EF1268F39923B1F3552391F3E4
:1023C000951B550BBB27AA2762177307840738F0A4
:1023D0009F5F5F4F220F331F441FAA1FA9F335D001
:1023E0000E2E3AF0E0E832D091505040E695001CB5
:1023F000CAF72BD0FE2F29D0660F771F881FBB1F6F
:10240000261737074807AB07B0E809F0BB0B802D4C
:10241000BF01FF2793585F4F3AF09E3F510578F078
:102420000C94C7120C9412135F3FE4F3983ED4F35C
:10243000869577956795B795F7959F5FC9F7880F4C
:10244000911D9695879597F90895E1E0660F771F9E
:10245000881FBB1F621773078407BA0720F0621B2F
:10246000730B840BBA0BEE1F88F7E09508950E945A
:10247000F71288F09F5798F0B92F9927B751B0F00D
:10248000E1F0660F771F881F991F1AF0BA95C9F7F8
:1024900014C0B13091F00E941113B1E008950C9472
:1024A0001113672F782F8827B85F39F0B93FCCF325
:1024B000869577956795B395D9F73EF49095809575
:1024C000709561957F4F8F4F9F4F0895E89409C095
:1024D00097FB3EF490958095709561957F4F8F4F57
:1024E0009F4F9923A9F0F92F96E9BB279395F6956D
:1024F000879577956795B795F111F8CFFAF4BB0FEB
:1025000011F460FF1BC06F5F7F4F8F4F9F4F16C04E
:10251000882311F096E911C0772321F09EE8872FD8
:10252000762F05C0662371F096E8862F70E060E094
:102530002AF09A95660F771F881FDAF7880F96950D
:10254000879597F90895990F0008550FAA0BE0E8B1
:10255000FEEF16161706E807F907C0F01216130665
:10256000E407F50798F0621B730B840B950B39F4A5
:102570000A2661F0232B242B252B21F408950A260B
:1025800009F4A140A6958FEF811D811D089597F94B
:102590009F6780E870E060E008959FEF80EC089509
:1025A00000240A9416161706180609060895002432
:1025B0000A9412161306140605060895092E0394AC
:1025C000000C11F4882352F0BB0F40F4BF2B11F420
:1025D00060FF04C06F5F7F4F8F4F9F4F089557FD7F
:1025E0009058440F551F59F05F3F71F04795880F81
:1025F00097FB991F61F09F3F79F087950895121618
:1026000013061406551FF2CF4695F1DF08C01616C3
:1026100017061806991FF1CF869571056105089474
:102620000895E894BB2766277727CB0197F908958B
:102630000E94A31208F48FEF08950E9430130C94A7
:10264000DE120E94D01238F00E94D71220F095239B
:1026500011F00C94C7120C94CD1211240C94121387
:102660000E94EF1270F3959FC1F3950F50E0551F34
:10267000629FF001729FBB27F00DB11D639FAA27D7
:10268000F00DB11DAA1F649F6627B00DA11D661F26
:10269000829F2227B00DA11D621F739FB00DA11D47
:1026A000621F839FA00D611D221F749F3327A00D01
:1026B000611D231F849F600D211D822F762F6A2F9D
:1026C00011249F5750409AF0F1F088234AF0EE0F02
:1026D000FF1FBB1F661F771F881F91505040A9F72F
:1026E0009E3F510580F00C94C7120C9412135F3F6B
:1026F000E4F3983ED4F3869577956795B795F7956B
:10270000E7959F5FC1F7FE2B880F911D96958795E2
:1027100097F908950E94A312880B990B089597FBCF
:10272000072E16F4009407D077FD09D00E94CB1332
:1027300007FC05D03EF4909581959F4F08957095C4
:1027400061957F4F0895A1E21A2EAA1BBB1BFD01C4
:102750000DC0AA1FBB1FEE1FFF1FA217B307E40780
:10276000F50720F0A21BB30BE40BF50B661F771FD8
:10277000881F991F1A9469F76095709580959095B8
:102780009B01AC01BD01CF010895EE0FFF1F059025
:10279000F491E02D0994AA1BBB1B51E107C0AA1FAD
:1027A000BB1FA617B70710F0A61BB70B881F991FF2
:1027B0005A95A9F780959095BC01CD010895F8949C
:0227C000FFCF49
:1027C200FFFFFFFF00E100000000000000C1808168
:1027D2000000005C025F026202650268026B026E28
:1027E2000271027502780217001600150014001318
:1027F20000120018001D001A00190000000000E578
:102802000157077503FB01060279039703000000D5
:10281200001003E0024003B402D802C402B5022C45
:1028220000204641494C454421005368616B65795B
:1028320020466163746F7279205465737473202D1E
:102842002032303139204C6974746C6520426972CF
:102852006420456C656374726F6E696373005445DE
:1028620053542031202D20002B332E3356203D206F
:1028720000544553542032202D20005445535420F7
:1028820033202D2000544553542034202D20005451
:102892004553542035202D200054455354203620D2
:1028A2002D2000544553542037202D2000544553E9
:1028B200542038202D2000544553542039202D20F7
:1028C20000430054455354203130202D20003078ED
:1028D2003938204F6B2E0054455354203131202D6E
:1028E2002000566F6C746167652050696E2000206D
:1028F2002D09005741524E494E4721212120426F56
:10290200617264204641494C454421212100426FB5
:10291200617264205041535345442E0041350041B9
:102922003400413300413200413100413000413630
:1029320000413131004138004137000D0A006E611B
:0A2942006E00696E66006F76660095
:1070000055C000006EC000006CC000006AC00000E7
:1070100068C0000066C0000064C0000062C00000DC
:1070200060C000005EC00000F1C400005AC0000053
:1070300058C0000056C0000054C0000052C00000FC
:1070400050C0000096C000004CC000004AC00000C4
:1070500048C0000046C0000044C0000042C000001C
:1070600040C000003EC000003CC000003AC000002C
:1070700038C0000036C0000034C0000032C000003C
:1070800030C000002EC000002CC000002AC000004C
:1070900028C0000026C0000024C0000022C000005C
:1070A00020C000001EC000001CC0000011241FBE34
:1070B000CFEFDAE0DEBFCDBF11E0A0E0B1E0E0E36A
:1070C000FFE702C005900D92AA3BB107D9F711E086
:1070D000AAEBB1E001C01D92A33DB107E1F733D3A4
:1070E00025C78ECF84E08093E9000DC08091E80031
:1070F0008B778093E80003C08EB3882359F080918A
:10710000E80082FFF9CF8091E80085FFEFCF809102
:10711000F100089580E0089593E09093E900909144
:10712000E80095FD0DC09091E8009E779093E800EF
:1071300003C09EB3992369F09091E80090FFF9CFC6
:107140008093F1005D9884E690E09093C101809374
:10715000C0010895F89410926F001092810081E0B0
:1071600085BF15BE47985D9A289A289A0C9400000E
:1071700008951F920F920FB60F9211242F938F93A1
:107180009F93EF93FF93109285001092840080915B
:10719000C0019091C101009741F001979093C10106
:1071A0008093C001009709F45D9A8091BE0190918F
:1071B000BF01009741F001979093BF018093BE01FA
:1071C000009709F4289A8091BA019091BB01019629
:1071D0009093BB018093BA01E0E0F0E08591949137
:1071E0002FEF8F3F920749F08091BC019091BD0134
:1071F00001969093BD018093BC01FF91EF919F9107
:107200008F912F910F900FBE0F901F90189582E0D5
:1072100061EC42E076D383E061E842E172D384E03E
:1072200060E842E16EC38091CB01982F9F77913245
:1072300049F59091CC019032A1F0913219F5813A43
:1072400009F58091E800877F8093E8008DE091E068
:1072500067E070E08CD48091E8008B778093E80041
:107260000895813279F48091E800877F8093E80067
:107270008DE091E067E070E0D9D48091E8008E77EE
:107280008093E80008954F925F926F927F928F9261
:107290009F92AF92BF92CF92DF92EF92FF920F93A5
:1072A0001F93CF93DF9384E08093E9008091E800FF
:1072B00082FF38C2289884E690E09093BF018093C3
:1072C000BE0110DFC82F853481F48CE49DE19093DA
:1072D000BD018093BC0107B600FCFDCFF999FECF3C
:1072E00081E180935700E89503C0843519F4FADEF4
:1072F0008DE0EEC18C34E1F38035D1F3843721F495
:1073000084E40ADF80E0E4C1813611F489E5E0C15C
:10731000813401F5E7DEC82FE5DE482F50E0440F49
:10732000551F662757FD6095762F3C2F330F20E0C1
:10733000C901AA2797FDA095BA2F482B592B6A2B74
:107340007B2B4093C3015093C4016093C50170939C
:10735000C601CECF803711F483E5BAC1833541F43D
:10736000C0E0D1E007E08991D7DE0150E1F7B1C17B
:10737000863521F481E3D0DE80E3AAC1833731F47E
:1073800087E8CADE85E9C8DE8EE1A2C18536B9F498
:10739000E0E0F0E093E085E090935700E89507B6D1
:1073A00000FCFDCF80935700E89507B600FCFDCFA9
:1073B000E058FF4F20E7E030F20771F799CF8237AE
:1073C00019F4E1E0F0E00EC0863419F4E0E0F0E0FA
:1073D00009C08E3419F4E3E0F0E004C0813539F4DB
:1073E000E2E0F0E089E080935700849171C1823639
:1073F00031F489E591DE80E08FDE80E869C1823476
:1074000019F0873609F0DAC01092BD011092BC0164
:1074100069DEC82E67DE082F65DED82F85548230DE
:1074200008F055C13C2D20E010E0022B132B1092E8
:107430006F00C73609F045C081E180935700E89599
:10744000C0E0BB24B39438C0C090C301D090C40145
:10745000E090C501F090C601D634B9F4EC2FF0E00D
:10746000EC29FD29849158DECC2369F0D701C601AF
:107470000296A11DB11D8093C3019093C401A093F6
:10748000C501B093C601CB2515C0D701C601B6957D
:10749000A7959795879534D53FDED701C60102960B
:1074A000A11DB11D8093C3019093C401A093C50198
:1074B000B093C601015010400115110509F0C4CF69
:1074C00079C04090C3015090C4016090C501709094
:1074D000C601D63409F05AC083E0F2018093570008
:1074E000E89507B600FCFDCF51C0D63449F5CC2352
:1074F00019F1C090C301D090C401E090C501F09093
:10750000C601F0DD982E88248B2D90E088299929DA
:10751000F6010C01A0925700E8951124D701C6018D
:107520000296A11DB11D8093C3019093C401A09345
:10753000C501B093C60102C0D5DDB82ECA2523C04F
:10754000C090C301D090C401E090C501F090C60185
:10755000F694E794D794C794C5DD682FC601D8D4B4
:107560008091C3019091C401A091C501B091C60161
:107570000296A11DB11D8093C3019093C401A093F5
:10758000C501B093C6010150104004C0BB24C0E047
:10759000AA24A3940115110509F0A7CFD63441F40C
:1075A00085E0F20180935700E89507B600FCFDCF17
:1075B0008DE0B2DD82E080936F008BC0833471F484
:1075C000C091C301D091C4018DDD90E021E0FE01A6
:1075D0000C0120935700E89511248ACE8336A9F434
:1075E000C090C301D090C401E090C501F090C601E5
:1075F00079DDF601E16090E021E00C012093570075
:10760000E8951124D701C60134C08D3661F4E091AC
:10761000C301F091C40185E080935700E89507B657
:1076200000FCFDCF65CE823551F4E091C301F091AD
:10763000C401C591D4918D2F6FDD8C2F49C0843446
:1076400021F5C090C301D090C401E090C501F09035
:10765000C601F694E794D794C79444DD682FC60119
:1076600057D48091C3019091C401A091C501B091FC
:10767000C6010296A11DB11D8093C3019093C40160
:10768000A093C501B093C60133CE8436F1F4C09007
:10769000C301D090C401E090C501F090C601D701AC
:1076A000C601B695A795979587952AD435DDD7015C
:1076B000C6010296A11DB11D8093C3019093C40120
:1076C000A093C501B093C60104C08B3111F08FE3C4
:1076D00023DD83E08093E9009091E8008091E80049
:1076E0008E778093E80095FF04C010C08EB3882386
:1076F000C9F08091E80080FFF9CF8091E8008E7793
:107700008093E80003C08EB3882361F08091E80085
:1077100080FFF9CF84E08093E9008091E8008B77C7
:107720008093E800DF91CF911F910F91FF90EF9030
:10773000DF90CF90BF90AF909F908F907F906F9091
:107740005F904F900895CF93209100081092000809
:1077500044B714BE88E10FB6F8948093600010928D
:1077600060000FBE90E880E00FB6F894909361003F
:10777000809361000FBE31E035BF82E085BF3F9A44
:10778000209A559A259A269A90936100109261004A
:1077900047985D9A289A109289009AEF90938800F2
:1077A00080936F0083E080938100E0E0F0E08591BA
:1077B00094915FEF8F3F950711F03093C20153987A
:1077C0005B9A8FE39CE90197F1F700C000004B99A9
:1077D00002C01092C20141FF1CC080910B0128170A
:1077E000C1F080930008789480910C01882341F0C7
:1077F0008091BA019091BB0122E08F3E9207C0F3C5
:1078000010920C01F8941092000881E080930C0112
:107810000CC040FF04C08091C201882351F443FF93
:1078200009C080910B01281729F08091C20188239B
:1078300009F090DCD3D078941092BD011092BC0175
:10784000CEEF23C020DD4AD34B9B0AC08091BC0100
:107850009091BD013FE18134930710F010920C012B
:107860008091C7019091C80101969093C8018093BF
:10787000C701292F97FF03C05C2F591B252F220F0B
:10788000281710F4289A01C0289880910C018823A9
:10789000C9F68091E00081608093E0005BDC80E0CD
:1078A00090E0CF910895923029F0933041F09130DB
:1078B00061F410C08EE390E02AE631E01EC0882318
:1078C00071F0813089F08230A1F080E090E020E01A
:1078D00030E013C082E190E028EA31E00EC084E09D
:1078E00090E026E631E009C08EE190E026E431E048
:1078F00004C080E390E024E131E0FA013183208389
:1079000008958093E900EBEEF0E080818160808350
:10791000EDEEF0E010826093EC0040838091EE0089
:10792000881F8827881F08958091CB0187FF11C089
:1079300003C08EB38823B1F08091E80082FFF9CFB5
:107940008091E8008B778093E80008958EB38823B8
:1079500049F08091E80080FFF9CF8091E8008E77B0
:107960008093E80008950F931F93CF93DF9341D046
:1079700048D0C8EDD0E088818F778883888180687F
:10798000888388818F7D888319BC1EBA1092C901B3
:1079900000EE10E0F80180818B7F80838881816018
:1079A000888380E060E042E0ACDFE1EEF0E08081DF
:1079B0008E7F8083E2EEF0E0808181608083808131
:1079C00088608083F80180818E7F808388818061D8
:1079D0008883DF91CF911F910F910895E7EDF0E03B
:1079E0008081816080838AE482BF81E08093CA01C4
:1079F000BACFE8EDF0E080818E7F80831092E200C4
:107A000008951092DA001092E10008951F920F92EB
:107A10000FB60F9211242F933F934F935F936F9361
:107A20007F938F939F93AF93BF93EF93FF93809137
:107A3000DA0080FF1BC08091D80080FF17C08091C2
:107A4000DA008E7F8093DA008091D90080FF0BC02E
:107A500080E189BD82E189BD09B400FEFDCF81E0EE
:107A60008EBB3BD203C019BC1EBA37D28091E10055
:107A700080FF17C08091E20080FF13C08091E20078
:107A80008E7F8093E2008091E20080618093E2002B
:107A90008091D80080628093D80019BC85E08EBBAD
:107AA0001CD28091E10084FF2CC08091E20084FF11
:107AB00028C080E189BD82E189BD09B400FEFDCF07
:107AC0008091D8008F7D8093D8008091E1008F7ED7
:107AD0008093E1008091E2008F7E8093E2008091AC
:107AE000E20081608093E2008091C901882321F443
:107AF0008091E30087FF02C084E001C081E08EBB7B
:107B0000ECD18091E10083FF21C08091E20083FFEE
:107B10001DC08091E100877F8093E10082E08EBBF1
:107B20001092C9018091E1008E7F8093E1008091E5
:107B3000E2008E7F8093E2008091E200806180937A
:107B4000E20080E060E042E0DCDEC7D1FF91EF912F
:107B5000BF91AF919F918F917F916F915F914F9165
:107B60003F912F910F900FBE0F901F90189540914D
:107B7000D1015091D2014617570720F4BA01FC01F8
:107B800040E03BC061157105D1F74091E8004E77A8
:107B90004093E800F4CF8EB3882309F443C08530C6
:107BA000E9F18091E80083FD3BC08091E80082FD0F
:107BB0002FC08091E80080FF20C09091F300809159
:107BC000F200392F20E090E0822B932B06C04191E8
:107BD0004093F1006150704001966115710519F0F4
:107BE00088309105A0F341E08830910509F040E02C
:107BF0008091E8008E778093E8006115710559F651
:107C0000442349F605C08EB3882361F0853061F0C6
:107C10008091E80082FFF7CF80E0089583E0089527
:107C200081E0089582E0089583E00895611571056B
:107C300029F44091E8004B774093E800582F492FF2
:107C40002AC08EB38823D1F18530A1F18091E8005C
:107C500083FD32C08091E80082FFF3CFE52FF42F3F
:107C600008C08091F10081935E2F4F2F61507040CA
:107C700069F05E2F4F2F9091F3008091F200392F21
:107C800020E090E0822B932B009759F78091E80039
:107C90008B778093E8006115710599F605C08EB366
:107CA000882361F0853061F08091E80080FFF7CF94
:107CB00080E0089583E0089581E0089582E00895CA
:107CC00083E008950F931F93CF93DF9300D0CDB738
:107CD000DEB788E0EBECF1E09091F10091938150F8
:107CE000D9F7A1DA8091E80083FFE2C08091CB014F
:107CF0009091CC01953009F46BC0963040F49130EE
:107D000061F1913070F0933009F0D2C026C0983004
:107D100009F4A1C0993009F4B0C0963009F0C8C088
:107D20007AC0803809F4C4C0823809F0C1C080919B
:107D3000CF0187708093E9009091EB001092E900E9
:107D40008091E800877F8093E80081E095FF80E0E4
:107D50008093F1001092F10089C0882319F08230DD
:107D600009F0A6C08F71823009F0A2C08091CD01C8
:107D7000882341F52091CF01277009F499C0209301
:107D8000E9008091EB0080FF1DC08091CC01833021
:107D900021F48091EB00806213C08091EB00806140
:107DA0008093EB0081E090E002C0880F991F2A9534
:107DB000E2F78093EA001092EA008091EB0088607D
:107DC0008093EB001092E9008091E800877F51C01A
:107DD000882309F06DC01091CD011F770FB7F8947B
:107DE0008091E800877F8093E8009EDD8091E80025
:107DF00080FFFCCF8091E3008078812B8093E300AB
:107E000080688093E300112311F083E001C082E0D9
:107E10008EBB0FBF4DC08058823008F049C08091A2
:107E2000CD019091CE016091CF01AE014F5F5F4FC8
:107E30003ADDBC01009709F43BC08091E800877FE0
:107E40008093E80089819A8192DE8091E8008B77A7
:107E50008093E8002DC0803859F58091E800877F35
:107E60008093E8008091C9018093F1008091E8003F
:107E70008E778093E80058DD1BC08823C9F4909169
:107E8000CD019230A8F48091E800877F8093E800CC
:107E90009093C90149DD8091C901882321F4809123
:107EA000E30087FF02C084E001C081E08EBBAFD950
:107EB0008091E80083FF0AC08091EB00806280938C
:107EC000EB008091E800877F8093E8000F900F908F
:107ED000DF91CF911F910F9108950895CF938EB3A5
:107EE000882361F0C091E900C7701092E900809189
:107EF000E80083FF01C0E6DEC093E900CF9108955A
:107F0000F999FECF92BD81BDF89A992780B5089561
:107F1000262FF999FECF1FBA92BD81BD20BD0FB6A5
:107F2000F894FA9AF99A0FBE01960895F894FFCF43
:107F30004341544552494E4100000877010000007A
:107F40000000000830034C006900740074006C00ED
:107F500065002000420069007200640020004500B6
:107F60006C0065006300740072006F006E006900B1
:107F70006300730000001E035300680061006B0083
:107F80006500790020002000200020002000200053
:107F90002000200000000403090409023E00020141
:107FA00000803209040000010202010005240010D3
:107FB00001042402040524060001070582030800C9
:107FC000FF09040100020A00000007050402100076
:107FD00001070583021000011201100102000008D0
:0A7FE0000A31001001000201000147
:040000030000700089
:00000001FF
