:100000000C945D010C9485010C9485010C94850180
:100010000C9485010C9485010C9485010C94850148
:100020000C9485010C9485010C942A040C949C0476
:100030000C9485010C9485010C9485010C94850128
:100040000C9485010C9485010C9485010C94850118
:100050000C9485010C9485010C9485010C947F0807
:100060000C9485010C9485010C9485010C948501F8
:100070000C9485010C9485010C9485010C948501E8
:100080000C9485010C9485010C9485010C948501D8
:100090000C94C9080C9485010C9485010C9485017D
:1000A0000C9485010C9485010C948501F506F806E5
:1000B000E706EB06F106190719071907FC06000702
:1000C00004070A070E0719071407000000000000C4
:1000D00000002A2B280000000000000000000000A3
:1000E000000000000000000000002C9EB4A0A1A2AF
:1000F000A434A6A7A5AE362D3738271E1F202122EF
:1001000023242526B333B62EB7B89F8485868788E7
:10011000898A8B8C8D8E8F909192939495969798D7
:10012000999A9B9C9D2F3130A3AD35040506070895
:10013000090A0B0C0D0E0F101112131415161718B7
:10014000191A1B1C1DAFB1B0B5000000000024003F
:1001500027002A002D0030000000000025002800A4
:100160002B002E003100080B0002020201000904DE
:100170000000010202000005240010010524010115
:10018000010424020605240600010705810310006E
:100190004009040100020A000000070502024000B5
:1001A0000007058302400000040309041201000255
:1001B000EF0201400A3101100001010203014C6904
:1001C00074746C65204269726420456C6563747256
:1001D0006F6E696373004C6974746C652042697258
:1001E00064205368616B65790000000000230026DD
:1001F0000029002C002F0004040404040304050259
:1002000002020204030202020206060606060604B1
:10021000040202020404040802011040804010207D
:1002200040804080080204018040201002011080BC
:1002300010204040200000000200090F00000304CD
:1002400001000C00000000000000000000000000A1
:1002500000000005010902A1010901A100850105B5
:1002600009190129031500250195037501810295DE
:10027000017505810305010930093109381581250A
:100280007F750895038106C0C005010906A1018597
:1002900002050719E029E715002501750195088178
:1002A00002950175088103950675081500256505F9
:1002B00007190029658100C01A1411241FBECFEF51
:1002C000DAE0DEBFCDBF11E0A0E0B1E0E8E0FAE2A5
:1002D00002C005900D92A039B107D9F724E0A0E93A
:1002E000B1E001C01D92AD30B207E1F711E0CDE5FC
:1002F000D1E004C02197FE010E94E814CC35D1075B
:10030000C9F70E94C60D0C9402150C940000409190
:10031000030250910402209101023091020242171F
:100320005307B4F49091E8009570E1F39091E800E0
:1003300092FD19C08093F100809103029091040214
:1003400001968F739927892B19F48EEF8093E8001B
:10035000809103029091040201969093040280938D
:10036000030281E0089580E00895CF92DF92EF923A
:10037000FF920F931F93CF93DF931F92CDB7DEB7FA
:10038000182F062FE42E862F880F8E5F99830E94E8
:10039000870183E00E948701F12EC12E9981D92E19
:1003A0008C2D8F19801798F4F601E7FE02C0849116
:1003B00001C080810E948701182F80E00E94870180
:1003C0008123FFEFCF1ADF0A8111EACF01C081E05C
:1003D0000F90DF91CF911F910F91FF90EF90DF90E1
:1003E000CF900895DF92EF92FF920F931F93CF93D8
:1003F000DF93D82E8A017B01E40EF51EEB01CE15AA
:10040000DF0571F0D7FE03C0FE01849101C0888131
:100410000E94870121968111F2CF8FEF9FEF01C0DB
:10042000C801DF91CF911F910F91FF90EF90DF9066
:100430000895615030F02091F100FC012083019675
:10044000F8CF289884E6809317030895CF92DF921F
:10045000EF92FF920F931F93CF93DF936C017A017A
:100460008B01C0E0D0E0CE15DF0589F0D8016D9199
:100470008D01D601ED91FC910190F081E02DC60136
:100480000995892B11F47E0102C02196ECCFC7019A
:10049000DF91CF911F910F91FF90EF90DF90CF9060
:1004A00008958091F90181110DC082E08093F501DA
:1004B00084E08093F6011092F8011092F70181E038
:1004C0008093F90185EF91E008950F931F93CF93E7
:1004D000DF931F92CDB7DEB782E0898342E450E01C
:1004E00066E671E080E80E94F2010E945102DC01A0
:1004F00012960D911C9113970115110569F0D80101
:10050000ED91FC910280F381E02DBE016F5F7F4F82
:10051000C801099597FF07C089810F90DF91CF919E
:100520001F910F910895F80100851185E5CF85EDA4
:100530008093BC008091BC0084FDFCCF10926103CD
:1005400008954091CB01262F30E0240F311D213238
:100550003105DCF4209161032430C9F4FC0180E012
:1005600090E0861758F43091CB012191DC01A7551A
:10057000BE4FA30FB11D2C930196F3CF8091CB01F9
:10058000680F6093CB0180E0089581E0089582E0D8
:1005900008950895E0911A0380911903E81730F443
:1005A000F0E0E55EFC4F808190E008958FEF9FEFD3
:1005B000089590911A0380911903981750F4E92F28
:1005C000F0E0E55EFC4F208130E09F5F90931A03DE
:1005D00002C02FEF3FEFC90108958091190390E009
:1005E00020911A03821B91090895CF92DF92EF9216
:1005F000FF920F931F93CF93DF937C01262F972FAA
:100600008A0180916203882391F0C62FD72F6E0153
:10061000C40ED51ECC15DD0571F06991D701ED91A1
:10062000FC910190F081E02DC7010995F3CF642F73
:10063000822F0E94A102C801DF91CF911F910F91DB
:10064000FF90EF90DF90CF900895CF93DF931F92AC
:10065000CDB7DEB76983209162032223D1F02091C8
:100660008403203240F021E030E0FC013383228318
:1006700080E090E015C080916303E82FF0E0EC5932
:10068000FC4F998190838F5F8093630380938403F1
:1006900005C061E0CE0101960E94A10281E090E0D8
:1006A0000F90DF91CF910895DC01FB0112968C91A0
:1006B000129790E02481358182179307D1F49181BC
:1006C0008081813A31F481E0913091F0933089F466
:1006D00011C0813271F49B3021F482811F968C937A
:1006E00005C09A3031F4828150968C9381E0089550
:1006F000089580E00895DC01FB0188E4808389E4AB
:10070000818384E482831D969C911D979F709F5BDB
:1007100093831D968D919C911E9724E096958795C5
:100720002A95E1F78F708F5B848385E00895EF92BF
:10073000FF920F931F93CF93DF93FB01208121380A
:1007400051F52381223239F5DC0112962C9130E0EB
:100750004481558142175307F1F4EC010B851C8548
:10076000E12CF12C0115110591F0F801448155811E
:100770006281738180E80E94F2018F3FFFEF9F0743
:1007800069F0E80EF91ED8010D911C91EBCF81E0C4
:100790008F87C70105C080E090E002C08FEF9FEF18
:1007A000DF91CF911F910F91FF90EF900895CF931C
:1007B000DF93CDB7DEB769970FB6F894DEBF0FBEF3
:1007C000CDBFFC01DB018C918F5F8C93BE016F5F0D
:1007D0007F4F89E1DB011D928A95E9F729E02983A2
:1007E00084E08A8391E09D8383E08E832A8721E2DF
:1007F0002B879C879D879F8722E2288B27E02B8B66
:1008000025E02C8B8E8B20E430E0388F2F8B998F56
:1008100082818B8395858685998B8A8B838180687D
:100820008D8B49E150E080E00E94F20169960FB69D
:10083000F894DEBF0FBECDBFDF91CF910895FC01CC
:1008400082818F5BFB01808381E00895089580E0C1
:1008500090E008951F920F920FB60F9211248F937C
:100860009F938091E1009091E100937F9093E1004C
:1008700083FF0FC01092E90091E09093EB0010927B
:10088000EC0092E39093ED001092180398E090939F
:10089000F00082FF20C093E09093E9009091F20075
:1008A000992319F09AE39093E80090910502992317
:1008B00039F090910502915090930502992389F1A6
:1008C00090911703992339F09091170391509093C9
:1008D0001703992341F184FF10C08091E2008E7EBE
:1008E00081608093E2008091E1008F7E8093E1003F
:1008F000809107028E7E806111C080FF16C08091BA
:10090000E2008E7E80618093E2008091E1008E7E25
:100910008093E100809107028E7E816080930702C0
:1009200004C05D9ACDCF289AD6CF9F918F910F901A
:100930000FBE0F901F9018951F920F920FB60F9237
:100940001124CF92DF92EF92FF920F931F932F9378
:100950003F934F935F936F937F938F939F93AF9347
:10096000BF93EF93FF93CF93DF93CDB7DEB76C9731
:10097000DEBFCDBF1092E9008091E80083FFEDC19A
:1009800068E0CE0145960E94190282EF8093E8004C
:100990008D8987FF05C09091E80090FFFCCF03C0D0
:1009A0009EEF9093E800982F907609F0C6C09E893C
:1009B0002F89188D91110CC0803829F4809108027C
:1009C0008093F10002C01092F1001092F10048C132
:1009D000422F50E0512B913051F4811141C14130EF
:1009E000510509F03DC1809108028D7F0BC0933005
:1009F00061F4811135C14130510509F031C1809157
:100A000008028260809308022BC1953041F48091E6
:100A1000E80080FFFCCF20682093E30021C19630DE
:100A200009F05FC0EB8CFC8C1092E900109204027C
:100A300010920302123091F51092020210920102FC
:100A40000E94650299E0BE016F5F7F4FDB01E92FD5
:100A50001D92EA95E9F799831A8391E09E8390EAC3
:100A600098879AEF99872091030230910402275FBB
:100A70003F4F3C832B838D831092E9001092040238
:100A800010920302F0920202E092010249E050E06B
:100A900080E00E94F2010E946502E2C0F092020230
:100AA000E09201020E945102DC011296ED90FC904E
:100AB0001397E114F10409F4C0C0D701ED91FC9142
:100AC0000480F581E02DBE016B5E7F4FC701099563
:100AD000009719F00CF0C4C0C7C0F701E084F1849E
:100AE000E8CF973009F4C0C0983021F481E08093BA
:100AF000F100B6C0993009F0B3C0837009F0B4C0FA
:100B0000E1E0F1E081E021E036E39081992361F0BA
:100B10008093E9002093EB0091919093EC00309347
:100B2000ED008F5F873089F78EE78093EA0010929F
:100B3000EA008F898093180393C08B8D9C8D10924F
:100B4000E900109204021092030290930202809333
:100B50000102898D811156C08E899D89913A59F47F
:100B6000813209F081C047E050E06BE071E080E045
:100B70000E94F20175C0913209F076C0833289F487
:100B8000888D90E0982F88272F89822BA0E0B0E0F5
:100B90008093070190930801A0930901B0930A0183
:100BA0005FC0803269F48091E80082FFFCCF67E08B
:100BB0008BE091E00E9419028BEF8093E80006C061
:100BC000823209F04DC08F89809312018091060214
:100BD000882319F0EEEFFAE002C0E0E0F8E080913F
:100BE0000B0190910C01A0910D01B0910E01803B81
:100BF0009440A105B10509F07BC08091120180FFEE
:100C000093C076C00E945102DC0112960D911C9196
:100C100013970115110541F1D801ED91FC91019057
:100C2000F081E02DBE016B5E7F4FC80109958111F7
:100C300017C0F80100851185ECCF113009F44EC0C2
:100C4000133091F48F89882309F445C0823081F4F0
:100C500040E862E186ED91E00E94B501882321F031
:100C60008EEF8093E80079C081E28093EB0075C03D
:100C7000813029F440E867E18EEB91E0EDCF8330DD
:100C800099F70E945102DC011296ED90FC901397A7
:100C90008E010F5F1F4F6801E114F10479F0D70155
:100CA000ED91FC910680F781E02DB801C70109950F
:100CB000080F111DF701E084F184EECFD8011C92DA
:100CC000F60101900020E9F73197BF016C197D0909
:100CD00040E0C601C1CF68EA71E002C06CEA71E091
:100CE0006115710509F2FB01449150E080E840CFA5
:100CF0000FB6F894A8958091600088618093600099
:100D0000109260000FBEA895EE3F2AE0F20739F07E
:100D10008091FE0A9091FF0A91838083A1CF109267
:100D2000FF0A1092FE0A9CCFEE3F8AE0F80731F0EE
:100D3000808191819093FF0A8093FE0A87E797E76D
:100D4000918380839BE088E10FB6F894A895809307
:100D500060000FBE9093600083CF6C960FB6F8943E
:100D6000DEBF0FBECDBFDF91CF91FF91EF91BF915D
:100D7000AF919F918F917F916F915F914F913F9133
:100D80002F911F910F91FF90EF90DF90CF900F90D8
:100D90000FBE0F901F9018952FB7F894877080930F
:100DA000E9009091E800892F807295FF04C090912E
:100DB000F20080E4891B2FBF089590E0FC01319779
:100DC000EF30F105B0F5EA5AFF4F0C94E81480912A
:100DD00080008F7703C0809180008F7D809380009A
:100DE000089580918000877FF9CF84B58F7702C006
:100DF00084B58F7D84BD0895809190008F7707C062
:100E0000809190008F7D03C080919000877F8093B8
:100E1000900008958091C0008F7703C08091C0003A
:100E20008F7D8093C00008958091C200877F80935A
:100E3000C20008951F93CF93DF93282F30E0F9016C
:100E4000EB5CFD4F8491F901EA5EFD4FD491F9010D
:100E5000E950FE4FC491CC23C9F0162F81110E9496
:100E6000DD06EC2FF0E0EE0FFF1FE85AFE4FA591D4
:100E7000B4918FB7F894111105C09C91ED2FE095B6
:100E8000E92302C0EC91ED2BEC938FBFDF91CF9162
:100E90001F910895CF93DF9390E0FC01EA5EFD4F30
:100EA0002491FC01E950FE4F8491882361F190E088
:100EB000880F991FFC01E65BFE4FC591D491FC01A0
:100EC000E85AFE4FA591B491611109C09FB7F894FB
:100ED0008881209582238883EC912E230BC0623079
:100EE00061F49FB7F8943881822F8095832388839B
:100EF000EC912E2B2C939FBF06C08FB7F894E881FE
:100F00002E2B28838FBFDF91CF9108953FB7F894A0
:100F10008091F1019091F201A091F301B091F4015F
:100F200026B5A89B05C02F3F19F00196A11DB11D44
:100F30003FBFBA2FA92F982F8827820F911DA11D7F
:100F4000B11DBC01CD0142E0660F771F881F991FBC
:100F50004A95D1F708958F929F92AF92BF92CF9208
:100F6000DF92EF92FF926B017C010E9486074B019A
:100F70005C01C114D104E104F104F1F00E94860780
:100F8000DC01CB0188199909AA09BB09883E934065
:100F9000A105B10570F321E0C21AD108E108F108FA
:100FA00088EE880E83E0981EA11CB11CC114D104E8
:100FB000E104F10419F7DDCFFF90EF90DF90CF90BF
:100FC000BF90AF909F908F9008957F928F929F9245
:100FD000AF92BF92CF92DF92EF92FF920F931F9347
:100FE000CF93DF93C82E8B017A0180911803811172
:100FF00003C08FEF9FEF75C08091070280FF05C08F
:101000008091E00082608093E000CE2DDF2DD12C16
:101010008AEF882E8C2D8770B82E8C2D8072A82E8A
:101020008C2D8074982E9AE3792E209709F452C063
:101030008C2D0E94CC06282F81110AC08A9488200A
:10104000C1F261E070E080E090E00E94AB07EDCF7C
:1010500090E0C817D9070CF42C2F3FB7F894B09242
:10106000E9008091E80085FF33C0822F90E0C81B23
:10107000D90BAA2029F02150A8F01092F100FBCF43
:10108000F801C7FE07C0215058F044914093F10089
:101090003196F9CF215020F041914093F100FACFE1
:1010A000080F191FDD2019F07092E8000AC0809126
:1010B000E80085FD08C07092E800DD24D3942097F5
:1010C00039F0D12C05C0209719F491107092E800E6
:1010D0003FBFABCFD110ACCF5D9884E680930502C3
:1010E000C701DF91CF911F910F91FF90EF90DF909B
:1010F000CF90BF90AF909F908F907F9008951F9258
:101100000F920FB60F9211242F933F938F939F93BB
:10111000AF93BF938091090290910A02A0910B02B4
:10112000B0910C023091F00123E0230F2D3720F411
:101130000196A11DB11D05C026E8230F0296A11D31
:10114000B11D2093F0018093090290930A02A093AD
:101150000B02B0930C028091F1019091F201A091E9
:10116000F301B091F4010196A11DB11D8093F1012D
:101170009093F201A093F301B093F401BF91AF916A
:101180009F918F913F912F910F900FBE0F901F90C5
:1011900018951F920F920FB60F9211242F933F9321
:1011A0004F935F936F937F938F939F93AF93BF936F
:1011B000EF93FF938091B900887F803609F49CC03B
:1011C00068F5883209F45BC090F4803109F454C0AA
:1011D00038F4882309F4F6C0883009F44DC0F6C00D
:1011E000883109F44CC0803209F45DC0EFC080340E
:1011F00009F468C048F4803309F455C0883309F015
:10120000E5C080935F03D8C0803509F44FC08835AE
:1012100009F45DC0883409F0D9C0D6C0883909F412
:10122000C7C0A8F4883709F467C038F4883609F4D1
:1012300063C0803709F460C0C9C0883809F4B8C0F9
:10124000803909F45FC0803809F0C0C05BC0803BC2
:1012500009F486C038F4803A09F466C0883A09F483
:101260007FC0B4C0803C09F4A7C0883C09F4A4C086
:10127000883B09F48AC0AAC080913C0310C09091B9
:101280005E0380915D03981770F5E0915E0381E045
:101290008E0F80935E03F0E0E35CFC4F80818093CF
:1012A000BB0085EC86C080935F038EC0E0915E0337
:1012B00081E08E0F80935E038091BB00F0E0E35CE1
:1012C000FC4F808390915E0380915D036EC0E0913E
:1012D0005E0381E08E0F80935E038091BB00F0E09F
:1012E000E35CFC4F80838091600381116DC081E0DD
:1012F00080933B0384EA61C083E080936103109292
:10130000EF01CFCF8091EF01803208F051C0E09122
:10131000EF0181E08E0F8093EF018091BB00F0E040
:10132000E153FE4F8083BDCF85EC8093BC001092CB
:1013300061038091EF01803230F4E091EF01F0E041
:10134000E153FE4F10826091EF0170E0E091CD011A
:10135000F091CE018FEC91E009951092EF0136C02B
:1013600084E0809361031092CC011092CB01E09154
:10137000C901F091CA0109958091CB01811105C085
:1013800081E08093CB011092A901E091CC0181E032
:101390008E0F8093CC01F0E0E755FE4F8081809363
:1013A000BB009091CC018091CB01981708F479CFC4
:1013B00085E88093BC000AC085EC8093BC00109245
:1013C000610304C010925F030E949702FF91EF91A6
:1013D000BF91AF919F918F917F916F915F914F914D
:1013E0003F912F910F900FBE0F901F901895AF92C5
:1013F000BF92CF92DF92EF92FF920F931F93CF9302
:10140000DF931F92CDB7DEB77C0169836A01590172
:1014100041E050E0BE016F5F7F4FFC0183810E947D
:10142000E5078C0197FD0BC0F7018381A501B6018B
:1014300080640E94E50797FD02C0800F911F0F9006
:10144000DF91CF911F910F91FF90EF90DF90CF90A0
:10145000BF90AF9008958091A10181116BC081E090
:1014600080939401809395012AE931E030939701AC
:1014700020939601109299011092980127E131E092
:10148000309391012093900110929C0110929B0146
:1014900010929E0110929D0180939F018093A00164
:1014A00081EC80939A010E945102FC01218180917C
:1014B000940190E0820F911D089724F081E08093C1
:1014C000A10138C0A281B381109729F480E991E08D
:1014D000938382830EC018968D919C9119970097E3
:1014E00011F0DC01F8CF80E991E019969C938E937E
:1014F00018978081809392018181809393019081DC
:1015000080919501890F808380E0909194018917E3
:10151000A8F6A0919601B0919701A80FB11D9C91DA
:10152000A181B0E0A050BF4F9C9391819F5F9183B8
:101530008F5FEBCF80E991E00895CF93DF93DC01DB
:10154000683810F0685825C0E62FF0E067FF12C039
:10155000E058F10981E090E001C0880FEA95EAF7D0
:10156000809514969C911497892314968C931497C4
:1015700060E00FC0E653FF4F6491662329F167FFD7
:1015800008C014968C9114978D7F14968C931497A1
:101590006F77FD01369686E0662321F090819613E1
:1015A00001C01082815031968111F6CFED010E9469
:1015B0002B0AAE014C5F5F4F28E030E062E00E94F2
:1015C000F70981E090E002C080E090E0DF91CF91E8
:1015D0000895CF93DF93DC01683810F068582DC070
:1015E000E62FF0E067FF11C0E058F10981E090E0DC
:1015F00001C0880FEA95EAF714969C911497892BFD
:1016000014968C93149760E018C0E653FF4F6491D2
:10161000611109C081E090E013969C938E9312971C
:1016200080E090E046C067FF08C014968C91149744
:10163000826014968C9314976F7716968C911697F8
:10164000861751F117968C911797861729F11896DE
:101650008C911897861701F119968C911997861716
:10166000D9F01A968C911A978617B1F01B968C9127
:101670001B97861789F0FD01369680E090E0219156
:10168000211105C0FD01E80FF91F668305C0019611
:1016900086309105A1F7BECFED010E942B0AAE0165
:1016A0004C5F5F4F28E030E062E00E94F70981E084
:1016B00090E0DF91CF910895EF92FF921F93CF9327
:1016C000DF93EC01162F0E94E90A7C01612FCE0105
:1016D0000E949D0AC7019927DF91CF911F91FF902A
:1016E000EF900895382F209184039091A003213228
:1016F00008F049C0809161038111FCCF42E0409322
:101700006103309360033FEF30935F0310925E03F9
:1017100020935D03A4E6B3E04DE353E0FA013E2FCE
:10172000341B321718F43D913193F9CF10923C03DA
:1017300020913C03990F922B90933C0390913B0393
:10174000913061F410923B0390913C039093BB0065
:101750009091BC0093FDF8CF95EC01C095EE90936D
:10176000BC00909161039230E1F390915F039F3F41
:1017700079F080915F03803241F080915F03803384
:1017800031F084E005C081E003C082E001C083E065
:101790001092630310928403109262030895FC0177
:1017A00080911803811103C08FEF9FEF08959FB7B9
:1017B000F89482E08093E9002091F20030E0121664
:1017C000130614F421E030E02115310559F0289872
:1017D00084E6809317038091F10080838091F2006A
:1017E000882319F09FBFC90108958BE68093E80014
:1017F000F9CFCF93DF931F92CDB7DEB76983DC01BA
:10180000ED91FC910280F381E02D41E050E0BE01BA
:101810006F5F7F4F09950F90DF91CF91089583E01F
:101820008093E9008091F200882319F08AE3809385
:10183000E8000895CF93DF931F92CDB7DEB7FC0188
:101840008485958597FD05C02FEF3FEF3587248769
:101850000BC0CE0101960E94CF0B019719F489812C
:1018600090E002C08FEF9FEF0F90DF91CF9108952E
:101870000F931F93CF93DF931F92CDB7DEB78C01E9
:10188000FC018485958597FF0EC0CE0101960E94CC
:10189000CF0B019719F4298130E002C02FEF3FEF01
:1018A000F80135872487F801848595850F90DF91AD
:1018B000CF911F910F910895FC018485958597FD27
:1018C0000BC09FB7F89482E08093E9008091F2000A
:1018D0009FBF90E0019608959FB7F89482E08093AF
:1018E000E9008091F2009FBF90E00895CF93DF93CD
:1018F000EC0180911201882331F083E00E94E5071A
:101900001816190634F081E090E09B838A8380E00A
:1019100090E0DF91CF91089583E00E94CC0690E0A3
:101920000895CF93DF9300D000D0CDB7DEB790916C
:10193000910399838A836B831C820E942B0A24E083
:1019400030E0AE014F5F5F4F61E00E94F7090F90FA
:101950000F900F900F90DF91CF9108959091910388
:10196000892B891731F08093910360E080E00C941B
:10197000910C08954F925F926F927F928F929F92F7
:10198000AF92BF92CF92DF92EF92FF920F931F938D
:10199000CF93DF93D82E7B01542E412C612C7724DA
:1019A0007394C42FD0E0CC24CA9485EEB82E95EC65
:1019B000A92E0BE113E0451408F084C080919E032A
:1019C000709262038093A0031092630310928403C9
:1019D0006D2D85E893E00E94250381E00E94720B43
:1019E00090919E03709262039093A0031092630300
:1019F00010928403809161038111FCCF9E01241910
:101A000031092132310514F020E230E0322F213249
:101A100008F030E27092610370926003C0925F033D
:101A200010925E038FEF830F80935D0370923C03EF
:101A300020913C03990F922B90933C0380913B03A0
:101A4000813069F410923B0380913C038093BB008A
:101A50008091BC0083FDF8CFA092BC0002C0B09280
:101A6000BC00809161038130E1F380915E038317B4
:101A700010F430915E03ADE3B3E0EBE1F3E08E2FC1
:101A8000801B831718F48D918193F9CF10921A035C
:101A9000309319039091190380911A03981759F004
:101AA0004701860C911C85E893E00E94D902F4015D
:101AB00080836394EFCF852DF0E2F51508F480E282
:101AC000480E79CF862DDF91CF911F910F91FF9016
:101AD000EF90DF90CF90BF90AF909F908F907F90CE
:101AE0006F905F904F9008950F931F93CF93DF9364
:101AF00000D000D000D0CDB7DEB78C0146E0BE01EB
:101B00006F5F7F4F8BE30E94BA0C898190E0982F22
:101B100088272A81822BF801918380832B8130E0F2
:101B2000322F22278C81282B338322832D8130E092
:101B3000322F22278E81282B3583248326960FB6B9
:101B4000F894DEBF0FBECDBFDF91CF911F910F91F3
:101B50000895CF93C82F80919E0391E090936203E4
:101B60008093A00310926303109284036BE685E8D0
:101B700093E00E9425036C2F85E893E00E942503E3
:101B800081E00E94720B81E0CF910895CF93DF93A3
:101B9000CDB7DEB72D970FB6F894DEBF0FBECDBF21
:101BA000789484B5826084BD84B5816084BD85B538
:101BB000826085BD85B5816085BD80916E00816044
:101BC00080936E00109281008091810082608093EA
:101BD00081008091810081608093810080918000EC
:101BE0008160809380008091910082608093910059
:101BF000809191008160809391008091900081603C
:101C0000809390008091C10084608093C100809196
:101C1000C10082608093C1008091C1008160809387
:101C2000C1008091C30081608093C3008091C00097
:101C300082608093C0008091C20081608093C20066
:101C400080917A00846080937A0080917A0082602B
:101C500080937A0080917A00816080937A008091ED
:101C60007A00806880937A0010921803109208021C
:101C7000109207028091D70081608093D70080EA9C
:101C80008093D80089B5806189BD89B5826089BD9E
:101C900009B400FEFDCF61E070E080E090E00E94BA
:101CA000AB078091D8008F7C80618093D8008091B1
:101CB000E000807F8093E0008091E1008E7E809341
:101CC000E1008DE08093E200559A209AEEEFFFE765
:101CD000859194918B3F9C4D19F481E0809306028D
:101CE0000FE311E07801D701DC90B2E0EB0EF11CBC
:101CF00060E08D2D0E944A0760E08D2D0E941A073A
:101D0000EFE5EE16E1E0FE0671F760E089E00E9483
:101D10004A0760E08AE00E944A0760E08BE00E9488
:101D20004A0760E089E00E941A0760E08AE00E94AA
:101D30001A0760E08BE00E941A0761E080E10E94D0
:101D40004A0761E08EE00E944A0760E080E10E945D
:101D50001A0760E08EE00E941A078EE090E09093F0
:101D60001C0280931B028CE090E090931E028093F3
:101D70001D026FE171E0EFE4F2E0A3E4CA2EA2E0FD
:101D8000DA2E21E0D8018C910E5F1F4FD6018C9383
:101D9000DB018D919D91BD01D60112969C938E938E
:101DA0001197AF0149505109DA011C924F5F5F4F03
:101DB000DA011C924F5F5F4FDA011C924F5F5F4F59
:101DC000DA011C924F5F5F4FDA011C924F5F5F4F49
:101DD000DA011C924F5F5F4FDA011C927F01B2E083
:101DE000EB1AF108D7011C92DF011E92108297FFB7
:101DF00002C0D70103C00197029710F42C9301C0D1
:101E00002083BDE0CB0ED11C3D9631E00F3513078A
:101E100009F0B8CF10921A031092190310926303BD
:101E2000109284031092610381E08093600310920A
:101E30003B0361E082E00E941A0761E083E00E94B8
:101E40001A078091B9008E7F8093B9008091B90004
:101E50008D7F8093B90088E48093B80085E48093F7
:101E6000BC0041E0BE016F5F7F4F8BE60E94BA0C61
:101E70008981887F83600E94A90D41E0BE016F5F68
:101E80007F4F8BE60E94BA0C41E0BE016F5F7F4F2F
:101E90008BE60E94BA0C89818F7B0E94A90D18865F
:101EA0001F821A8619861C861B860EE110E046E00A
:101EB000BE016F5F7F4F83E40E94BA0C898190E07E
:101EC000982F88272A81822B98878F834B8150E017
:101ED000542F44272C81422B5A8749872D8130E08B
:101EE000322F22276E81262B3C872B87C09013022E
:101EF000D0901402C80ED91ED0921402C0921302C0
:101F0000E0901502F0901602E40EF51EF092160213
:101F1000E0921502A0901702B0901802A20EB31E14
:101F2000B0921802A09217020150110909F0BFCF18
:101F3000BEE16B2E712CCE0107960E94740D80902D
:101F40000D0290900E028F819885880E991E9092B6
:101F50000E0280920D0220910F02309110028985AD
:101F60009A85280F391F3093100220930F02009199
:101F70001102109112028B859C85080F191F109376
:101F800012020093110241E0641A7108A1F6EEE119
:101F9000F0E0C601BF010E94D41470931402609354
:101FA0001302C701BF010E94D414709316026093FC
:101FB0001502C501BF010E94D414709318026093EA
:101FC0001702C401BF010E94D41470930E026093E3
:101FD0000D02C901BF010E94D414709310026093D6
:101FE0000F02C801BF010E94D414709312026093C3
:101FF000110204E010E060E089E00E944A0760E01E
:1020000089E00E941A0761E08AE00E944A0761E0C5
:102010008AE00E941A0761E08BE00E944A0760E0B4
:102020008BE00E941A0762E370E080E090E00E947B
:10203000AB0760E089E00E944A0760E089E00E9407
:102040001A0761E08AE00E944A0760E08AE00E9485
:102050001A0761E08BE00E944A0761E08BE00E9472
:102060001A0762E370E080E090E00E94AB0761E055
:1020700089E00E944A0761E089E00E941A0761E056
:102080008AE00E944A0760E08AE00E941A0760E046
:102090008BE00E944A0760E08BE00E941A0762E32F
:1020A00070E080E090E00E94AB0761E089E00E9470
:1020B0004A0760E089E00E941A0761E08AE00E9416
:1020C0004A0761E08AE00E941A0760E08BE00E9404
:1020D0004A0760E08BE00E941A0762E370E080E04C
:1020E00090E00E94AB070150110909F084CF04E091
:1020F00010E061E089E00E944A0761E089E00E9407
:102100001A0760E08AE00E944A0760E08AE00E94C5
:102110001A0761E08BE00E944A0760E08BE00E94B2
:102120001A0764E670E080E090E00E94AB0761E08F
:1021300089E00E944A0760E089E00E941A0760E097
:102140008AE00E944A0760E08AE00E941A0761E084
:102150008BE00E944A0761E08BE00E941A0764E668
:1021600070E080E090E00E94AB070150110909F097
:10217000C0CF22242394312CA6E9AA2EB12CE3E46B
:102180008E2EE2E09E2EC12CD12C50901902052DEE
:1021900010E05DE05C9DF0015D9DF00D1124ED5BB4
:1021A000FD4FE00FF11F638070901A02E72C862D1F
:1021B00090E0072C02C0959587950A94E2F781700C
:1021C000D40116968C9316972C9130E0F901EB5CB4
:1021D000FD4F8491F901EA5EFD4F4490F901E95009
:1021E000FE4F2491222391F0882321F02D870E9415
:1021F000DD062D85E22FF0E0EE0FFF1FE751FE4FC9
:10220000A591B491EC914E2209F0FBC2C101072CBB
:1022100001C0880F0A94EAF7682ABDE0BC9DF0016E
:10222000BD9DF00D1124ED5BFD4FE00FF11F6382AA
:10223000EFEFCE1ADE0AFDE08F0E911C20E1C216F0
:10224000D10409F0A2CF910102C0220F331FEA94FA
:10225000E2F7EAE4F2E004501109DF01A00FB11F38
:102260008C9190E082239323892B19F080818F5FDA
:102270008083DF0111978C91882319F08081815030
:1022800080833D9643E0EA31F40739F781E0870D1A
:10229000883019F080931A020BC010921A0281E064
:1022A000850D833019F08093190202C01092190233
:1022B00010921F024BE4C42E42E0D42E00E212E042
:1022C0005FE4452E52E0552E780163E4862E62E0ED
:1022D000962E21E0D6018C91F201339780833297BC
:1022E000882361F1808190E040911D0250911E028F
:1022F00033963F0184179507BCF420931F021C926C
:10230000D2018C91882341F0F401618182E993E04C
:102310002D870E949D0A2D85D3018C91882341F140
:10232000F7011182108224C08081882309F1F7010E
:10233000808191810196918380831AC0808190E091
:1023400040911B0250911C02481759078CF42093AE
:102350001F02D6012C93F2018081882349F0D40119
:1023600011966C9182E993E02D870E94E90A2D85F0
:10237000BDE0CB0ED11CEDE08E0E911CF2E0EF0E15
:10238000F11C3DE0430E511C40E4E41642E0F4062B
:1023900009F0A0CF1A8219821C821B821E821D8224
:1023A000CE0101960E94740D8FB7F89440910902F6
:1023B00050910A0260910B0270910C028FBF20E0D5
:1023C0003FB7F8948091090290910A02A0910B0204
:1023D000B0910C023FBF841B950BA60BB70B449723
:1023E000A105B10548F421E089819A81885E96486B
:1023F0008133924F40F0E4CF222329F063E582E954
:1024000093E00E945C0B80911F02811117C08091A4
:10241000400290914102019663E270E00E94D41460
:102420009093410280934002892B09F0E2C0E0E0E2
:10243000F0E030E0F12C20E040E052C033E4C32E65
:1024400032E0D32EE12CF12CF701ED5BFD4F8385BB
:10245000882379F18085882371F0F601818192814A
:102460008130910511F481E003C0029711F582E0FB
:102470000E94AE0C1EC081858823D9F0D60111962A
:102480008D919C9112978130910529F4909191033F
:10249000892F8E7F06C0029761F490919103892F56
:1024A0008D7F891731F08093910360E080E00E9476
:1024B000910CBDE0EB0EF11CEDE0CE0ED11CF0ED69
:1024C000EF16F10409F6A3CF18968C911897811195
:1024D00010C03D960E5F1F4FE03DF10509F46BC043
:1024E000DF01AD5BBD4F1A968C911A97882389F353
:1024F000EBCF11968D919C9112978F3F5FEF9507CF
:1025000099F4D8018D919C918B36BFEF9B070CF409
:1025100083C18C3D35E093070CF080C1B5010E946A
:10252000D41431E0360FD5CF8E3F5FEF9507A1F47D
:10253000D8018D919C918B36BFEF9B070CF470C135
:102540008C3D55E095070CF06EC1B5010E94D41486
:10255000FF24F394F60EBDCF8D3F6FEF960799F4ED
:10256000D8018D919C918B36BFEF9B070CF45EC117
:102570008C3D45E094070CF05BC1B5010E94D4147A
:1025800041E0460FA6CF049609F0A3CFD8018D9164
:102590009C918B36BFEF9B0754F08C3D25E0920752
:1025A00044F4B5010E94D41421E0260F92CF21E01B
:1025B00090CF2AE08ECF9F2D822F442331F021111E
:1025C00003C0842F819501C080E0FF2019F03111F4
:1025D00006C008C0332319F0932F919503C08823B8
:1025E00041F090E0692F660F660F880F880F0E94F8
:1025F000910C60E089E00E944A0760E08AE00E9456
:102600004A0760E08BE00E944A0760E089E00E9490
:102610001A0760E08AE00E941A0760E08BE00E94DF
:102620001A07809142028F5F66E00E94C81490935F
:102630004202911113C080914B02882309F487C094
:1026400060E089E00E944A0760E089E00E941A0782
:1026500061E08AE00E944A0761E06EC0913099F41F
:1026600080915802882309F472C061E089E00E94D9
:102670004A0761E089E00E941A0761E08AE00E944F
:102680004A0760E014C09230B9F480916502882353
:1026900009F45DC061E089E00E944A0760E089E0DA
:1026A0000E941A0761E08AE00E944A0761E08AE01E
:1026B0000E941A0760E044C0933079F4809172025E
:1026C000882309F444C060E089E00E944A0760E082
:1026D00089E00E941A0761E00FC09430D1F4809124
:1026E0007F028823A1F161E089E00E944A0760E04F
:1026F00089E00E941A0760E08AE00E944A0760E0D1
:102700008AE00E941A0761E08BE00E944A0761E0BC
:102710001BC09530E1F480918C028823C1F061E008
:1027200089E00E944A0761E089E00E941A0760E0A0
:102730008AE00E944A0760E08AE00E941A0761E08E
:102740008BE00E944A0760E08BE00E941A0780E05D
:1027500090E010E020E0FC01ED5BFD4F308533237D
:1027600031F03485311102C011E001C021E00D9635
:10277000803D910581F7222331F061E080E10E94E4
:102780001A07289805C060E080E10E941A07289A7D
:10279000112331F061E08EE00E941A075D9805C0B8
:1027A00060E08EE00E941A075D9A0E9486072091E1
:1027B000150330911603621B730B7093140360931F
:1027C0001303683E32E0730774F488EE92E0861BD0
:1027D000970B8130910539F0880F991F880F991F49
:1027E00005970197F1F70E9486077093160360938F
:1027F000150380E090E0892B09F4C1CC0E94000011
:10280000BECCC10100901A0202C0880F991F0A9421
:10281000E2F78095682201CD31E05BCE3AE059CEF7
:10282000FF24F39456CE8AE0F82E53CE41E051CEE9
:102830004AE04FCE1092A4031092A30388EE93E0D7
:10284000A0E0B0E08093A5039093A603A093A70314
:10285000B093A80323E631E03093A2032093A103B1
:102860002FEF3FEF3093AE032093AD031092880318
:10287000109287038093890390938A03A0938B031C
:10288000B0938C0385E791E0909386038093850352
:10289000109291038091F703811113C01092F203FB
:1028A0001092F10383E592E09093F4038093F30395
:1028B00086E390E09093F6038093F50381E08093A4
:1028C000F7030E942B0AFC01A385B485109729F415
:1028D00081EF93E0948783870BC08D919C91119732
:1028E000009711F0DC01F9CF81EF93E08D939C9379
:1028F000258536858091F5039091F603820F931F0D
:1029000096878587109295031092940387E891E04B
:10291000909393038093920380910504811113C0D7
:10292000109200041092FF0389E892E09093020451
:10293000809301048FE290E0909304048093030459
:1029400081E0809305040E942B0AFC01A385B485D5
:10295000109729F48FEF93E0948783870BC08D91B4
:102960009C911197009711F0DC01F9CF8FEF93E064
:102970008D939C9325853685809103049091040462
:10298000820F931F9687858788E680939E0308951C
:10299000991B79E004C0991F961708F0961B881FB1
:1029A0007A95C9F78095089597FB072E16F4009441
:1029B00007D077FD09D00E94EE1407FC05D03EF445
:1029C000909581959F4F0895709561957F4F0895DB
:1029D000EE0FFF1F0590F491E02D0994AA1BBB1B7D
:1029E00051E107C0AA1FBB1FA617B70710F0A61B0F
:1029F000B70B881F991F5A95A9F780959095BC0130
:082A0000CD010895F894FFCF09
:102A080000C18081000000FFFFFFFF00E10000001F
:102A1800000000000000005403D70397037B03DA8B
:102A280000D900D800D700200001007700610066B7
:102A3800006700FFFFFEFFFDFFFCFF020001000C26
:102A48000008000D000F0007000600050004000143
:102A580000000017001600150014001300120000F3
:102A6800000000F90B760C8C0C0F0C5C0C1A0C385F
:102A78000C000000002503F5022704C902ED02D965
:102A880002CA02000000005C0B260227042604008C
:00000001FF
