:200000000C9467010C948F010C948F010C948F010C948F010C948F010C948F010C948F0188
:200020000C948F010C948F010C9484060C9450050C948F010C948F010C948F010C948F0181
:200040000C948F010C948F010C948F010C948F010C948F010C948F010C948F010C94A90106
:200060000C948F010C948F010C948F010C948F010C948F010C948F010C948F010C948F0100
:200080000C948F010C948F010C948F010C948F010C948F010C948F010C948F010C948F01E0
:2000A0000C948F010C948F010C948F01AC02AF029E02A202A802D002D002D002B302B7027F
:2000C000BB02C102C502D002CB020000000200090F0000030401000C00000000000000000C
:2000E00000000000000000000408020110408040102040804080080204018040201002012F
:2001000010801020404004040404040304050202020204030202020206060606060604043C
:200120000202020400000000250028002B002E00310000000000240027002A002D0030000C
:2001400000C18081C11201000202000040032A368000010102000112010002000000400385
:200160002A368000010102000141726475696E6F2053726C0041726475696E6F204C656F65
:200180006E6172646F0004030904080B0002020201000904000001020200000524001001D1
:2001A00005240101010424020605240600010705810310004009040100020A0000000705AD
:2001C00002024000000705830240000000000000000000002A2B280000000000000000008D
:2001E0000000000000000000000000002C9EB4A0A1A2A434A6A7A5AE362D3738271E1F20D0
:20020000212223242526B333B62EB7B89F8485868788898A8B8C8D8E8F90919293949596BA
:200220009798999A9B9C9D2F3130A3AD350405060708090A0B0C0D0E0F101112131415167C
:200240001718191A1B1C1DAFB1B0B500090402000103000000092101010001226500070550
:20026000840340000105010902A1010901A1008501050919012903150025019503750181B4
:200280000295017505810305010930093109381581257F750895038106C0C005010906A102
:2002A000018502050719E029E71500250175019508810295017508810395067508150025E7
:2002C000650507190029658100C0B607090911241FBECFEFDAE0DEBFCDBF11E0A0E0B1E041
:2002E000ECE8F2E102C005900D92A832B107D9F721E0A8E2B1E001C01D92A739B207E1F702
:2003000012E0CEECD2E004C02297FE010E944009CA3CD107C9F70E9441030C9444090C9407
:20032000000061E08DE00C94D10261E08DE00E940A0364E670E080E090E00E94160260E0DB
:200340008DE00E940A0364E670E080E090E00C9416021F920F920FB60F9211242F933F93DE
:200360008F939F93AF93BF938091290190912A01A0912B01B0912C013091280123E0230F24
:200380002D3720F40196A11DB11D05C026E8230F0296A11DB11D209328018093290190935D
:2003A0002A01A0932B01B0932C0180912D0190912E01A0912F01B09130010196A11DB11DBE
:2003C00080932D0190932E01A0932F01B0933001BF91AF919F918F913F912F910F900FBED7
:2003E0000F901F9018953FB7F89480912D0190912E01A0912F01B091300126B5A89B05C03B
:200400002F3F19F00196A11DB11D3FBF6627782F892F9A2F620F711D811D911D42E0660FAD
:20042000771F881F991F4A95D1F70895CF92DF92EF92FF92CF93DF936B017C010E94F3014C
:20044000EB01C114D104E104F10489F00E94F8060E94F3016C1B7D0B683E734090F381E031
:20046000C81AD108E108F108C851DC4FEACFDF91CF91FF90EF90DF90CF900895789484B554
:20048000826084BD84B5816084BD85B5826085BD85B5816085BDEEE6F0E08081816080839A
:2004A000E1E8F0E01082808182608083808181608083E0E8F0E0808181608083E1E9F0E02F
:2004C000808182608083808181608083E0E9F0E0808181608083E1ECF0E08081846080834E
:2004E000808182608083808181608083E3ECF0E0808181608083E0ECF0E08081826080832B
:20050000E2ECF0E0808181608083EAE7F0E080818460808380818260808380818160808304
:20052000808180688083089590E0FC013197EF30F105B0F5EA5AFF4F0C943E098091800039
:200540008F7703C0809180008F7D80938000089580918000877FF9CF84B58F7702C084B56C
:200560008F7D84BD0895809190008F7707C0809190008F7D03C080919000877F8093900069
:2005800008958091C0008F7703C08091C0008F7D8093C00008958091C200877F8093C20029
:2005A0000895CF93DF9390E0FC01E851FF4F2491FC01EA5FFE4F8491882349F190E0880F8D
:2005C000991FFC01EE5CFE4FA591B4918C5D9E4FFC01C591D4919FB7611108C0F8948C918D
:2005E000209582238C93888182230AC0623051F4F8948C91322F309583238C938881822BE9
:20060000888304C0F8948C91822B8C939FBFDF91CF9108950F931F93CF93DF931F92CDB76E
:20062000DEB7282F30E0F901E653FF4F8491F901E851FF4F1491F901EA5FFE4F04910023BA
:20064000C9F0882321F069830E9494026981E02FF0E0EE0FFF1FEC5DFE4FA591B4919FB7B6
:20066000F8948C91611103C01095812301C0812B8C939FBF0F90DF91CF911F910F9108950D
:2006800008950E943E020E94400381E391E00E94DA060E949101C0E0D0E00E94950120972C
:2006A000E1F30E940000F9CF4091350150913601209133013091340142175307B4F4909186
:2006C000E8009570E1F39091E80092FD19C08093F100809135019091360101968F739927EC
:2006E000892B19F48EEF8093E80080913501909136010196909336018093350181E00895EA
:2007000080E00895CF92DF92FF920F931F93CF93DF931F92CDB7DEB7082F162F862F880FBF
:200720008E5F99830E94540383E00E945403F02EC02E9981D92E8C2D8F19811778F4F601D2
:2007400084910E945403082F80E00E9454038023FFEFCF1ADF0A8111EECF01C081E00F9088
:20076000DF91CF911F910F91FF90DF90CF900895615030F02091F100FC0120830196F8CFEE
:20078000289884E68093380108952FB7FC012083F89467706093E9000895CF93DF931F925F
:2007A000CDB7DEB7682FCE0101960E94C5038091F20099819FBF0F90DF91CF910895FF92A1
:2007C0000F931F93CF93DF9300D0CDB7DEB7F62E8A0190913701992311F057FF03C08FEFAC
:2007E0009FEF2BC0682FCE0101967A830E94C5038091F20090E0A8017A81801791070CF4D6
:20080000AC01EF2DF72FF40E84E6FE1639F02898809338019091F1009193F7CF411551058C
:2008200021F08091F200882321F089818FBFCA0104C08BE68093E800F8CF0F900F90DF9120
:20084000CF911F910F91FF900895CF93DF931F92CDB7DEB741E050E0BE016F5F7F4F0E94D0
:20086000DF03019719F4898190E002C08FEF9FEF0F90DF91CF910895CF93DF931F92CDB794
:20088000DEB7682FCE0101960E94C5039091E800892F807295FF04C09091F20080E4891B36
:2008A00099819FBF0F90DF91CF9108956F927F928F929F92AF92BF92CF92DF92EF92FF92DA
:2008C0000F931F93CF93DF931F92CDB7DEB7782E7B01C42EB52E80913701882369F0042FAF
:2008E000152F8AEFD82E872D8072982E9AE3A92E872D8074882E11C08FEF9FEF57C0872D6F
:200900000E943C04682E81110CC0DA94A9F361E070E080E090E00E9416020115110579F740
:200920003BC0282F30E0021713070CF4602E672DCE0101960E94C5038091E80085FF29C0CA
:20094000262D30E0021B130B992039F06A948FEF6816B1F01092F100F9CFF701862D77FE01
:2009600007C0815058F094919093F1003196F9CF815020F091919093F100FACFE20EF31EEE
:200980008091E80085FF0FC00115110511F481100AC089818FBFC1CF5D9884E680933901EB
:2009A0008C2D9B2D03C0A092E800F3CF0F90DF91CF911F910F91FF90EF90DF90CF90BF902D
:2009C000AF909F908F907F906F9008951092E9001092360110923501909334018093330104
:2009E0000895CF92DF92FF920F931F93CF93DF9300D0CDB7DEB7F82E8A016B01011511059D
:200A0000B1F0F601F7FE02C0849101C0808149835A830E94540301501109FFEFCF1ADF0AE3
:200A200049815A818111EACF8FEF9FEF01C0CA010F900F90DF91CF911F910F91FF90DF90D2
:200A4000CF9008951F93CF93DF931F92CDB7DEB7162F2091E80022FFFCCF612F79830E9452
:200A6000B8038BEF8093E800812F7981972F0F90DF91CF911F910895CF93DF931F92CDB711
:200A8000DEB71982CE0101960E945607CE0101960E94F107898190E00F90DF91CF9108953B
:200AA0001F920F920FB60F921124EF92FF920F931F932F933F934F935F936F937F938F9345
:200AC0009F93AF93BF93EF93FF93CF93DF93CDB7DEB76297DEBFCDBF1092E9008091E800A9
:200AE00083FFEBC068E0CE010A960E94B80382EF8093E8009A8597FF05C08091E80080FF57
:200B0000FCCF03C08EEF8093E800892F807609F0B9C08B85811105C01092F1001092F10022
:200B2000C5C0282F2D7F213009F4C0C0853049F48091E80080FFFCCF8C8580688093E3003B
:200B4000B5C0863009F076C02D85E888F988223071F580E090E02A8B0E94E6040E943C05EC
:200B600099E08E010F5F1F4FF801392F11923A95E9F799832A892A8391E09E8390E8988739
:200B80009AEF99872091350130913601275F3F4F3C832B838D83C7010E94E60449E050E08F
:200BA000B80180E00E94F1040E943C057FC0C7012A8B0E94E6042A89223241F482E290E04A
:200BC0000E94FC07892B09F071C074C0213069F488899989089711F42093320180913201AF
:200BE000811118C067E571E01AC0233009F062C08C85882391F0823021F460E185E791E084
:200C000006C0813009F056C06BE089E691E00E9482034AC065E471E002C066E871E0611581
:200C2000710509F447C0FB01449150E080E80E94F1043CC0873009F43DC0883021F481E05F
:200C40008093F10033C0893089F5937099F5E1E4F1E081E021E096E38093E9002093EB00CA
:200C600034913093EC009093ED008F5F3196853099F78EE78093EA001092EA008C858093D4
:200C8000370114C0888999890E94E6048E85811105C0CE010A960E94610706C0823051F4E9
:200CA000CE010A960E942408882321F08EEF8093E80003C081E28093EB0062960FB6F89456
:200CC000DEBF0FBECDBFDF91CF91FF91EF91BF91AF919F918F917F916F915F914F913F91AE
:200CE0002F911F910F91FF90EF900F900FBE0F901F9018958093E9008091F200882319F0BC
:200D00008AE38093E80008951F920F920FB60F9211242F933F934F935F936F937F938F9343
:200D20009F93AF93BF93EF93FF938091E1001092E10083FF0FC01092E90091E09093EB0009
:200D40001092EC0092E39093ED001092370198E09093F00082FF1DC083E00E947A06809127
:200D60003901882339F080913901815080933901882369F080913801882359F08091380170
:200D8000815080933801811104C0289A02C05D9AF1CFFF91EF91BF91AF919F918F917F91A5
:200DA0006F915F914F913F912F910F900FBE0F901F9018951092370181E08093D70080EADD
:200DC0008093D80082E189BD09B400FEFDCF61E070E080E090E00E94160280E98093D80089
:200DE0008CE08093E2001092E000559A209A08950895CF93DF931F92CDB7DEB76983DC01C6
:200E0000ED91FC910280F381E02D41E050E0BE016F5F7F4F09950F90DF91CF910895CF930C
:200E2000DF93EC018C859D8597FF05C082E00E9425049D878C878C859D85DF91CF910895C1
:200E400083E00C947A06FC018485958597FD06C082E00E94CD0390E00196089582E00E9419
:200E6000CD0390E00895FC018485958597FD05C02FEF3FEF35872487089582E00C942504A1
:200E8000CF93DF93EC0180910701882331F083E00E9456041816190634F081E090E09B83ED
:200EA0008A8380E090E0DF91CF910895FC0120812E5F208342E450E06AE871E080E80C9419
:200EC000F104FC0181819081913A59F4813209F03CC047E050E060E071E080E00E94F1046E
:200EE00043C0913291F5803239F467E070E080E091E00E94220506C0823209F035C082812B
:200F0000809307018091000190910101A0910201B0910301803B9440A105B105C1F4809157
:200F2000070180FD14C087E797E790930108809300082BE088E190E00FB6F894A8958093A0
:200F400060000FBE209360000FC080E0089588E10FB6F89480936000109260000FBEA8954C
:200F6000109201081092000881E0089510923D0110923C0188EE93E0A0E0B0E080933E0114
:200F800090933F01A0934001B09341018EE091E090933B0180933A018FEF9FEF90934701F2
:200FA000809346010895FF920F931F93CF93DF93EC01F62EE881F9810480F581E02D0995E8
:200FC0008C01E881F9810680F781E02D6F2DCE010995C8019927DF91CF911F910F91FF9055
:200FE0000895FC0120812F5F208349E150E06CE472E080E80C94F10445E650E065E672E094
:2010000080E80C94F104EF92FF920F931F93CF93DF931F92CDB7DEB789838B017A0141E09B
:2010200050E0BE016F5F7F4F84E00E945604A701B80184E40E9456040F90DF91CF911F91E1
:201040000F91FF90EF900895FC0191818081813A31F481E0913091F0933089F411C08132EE
:2010600071F49B3021F482818093090105C09A3031F482818093080181E00895089580E03D
:20108000089548E050E082E00C940308CF93DF93DC01683818F0E8E7E60F25C0E62FF0E067
:2010A00067FF11C0E058F10981E090E001C0880FEA95EAF714969C911497982B14969C9320
:2010C0001497E0E010C0E453FE4FE491EE2309F440C0E7FF08C014968C9114978260149622
:2010E0008C931497EF7716968C9116978E1741F117968C9117978E1719F118968C911897D2
:201100008E17F1F019968C9119978E17C9F01A968C911A978E17A1F01B968C911B978E1796
:2011200079F080E090E0ED01C80FD91F2E81211102C0EE8305C0019686309105A1F709C09C
:20114000BD016C5F7F4FCD010E94410881E090E008C081E090E013969C938E93129780E013
:2011600090E0DF91CF910895683818F0E8E7E60F25C0E62FF0E067FF12C0E058F10921E0F1
:2011800030E001C0220FEA95EAF72095DC0114963C911497322314963C93E0E00FC0E453A5
:2011A000FE4FE491EE2329F1E7FF08C0DC0114962C9114972D7F14962C93EF7720E030E01A
:2011C000EE2351F0DC01A20FB31F16964C9116974E1302C016961C922F5F3F4F2630310502
:2011E00079F7BC016C5F7F4F0E94410881E090E0089580E090E00895FC011682178210869F
:201200001186128613861482BC016C5F7F4F0C9441081092960110928D0110928C018EE12A
:2012200091E090938B0180938A010895CF92DF92EF92FF920F931F93CF93DF936C017A015F
:20124000EB01E60EF71E00E010E0CE15DF0561F06991D601ED91FC910190F081E02DC601FF
:201260000995080F191FF1CFC801DF91CF911F910F91FF90EF90DF90CF900895EE0FFF1F44
:201280000590F491E02D0994F894FFCF00E1000000000000010100000000F90640072307DD
:2012A00033070F07200700000000D30716094608B408FC08FFFFFFFFFFFFFFFFFFFFFFFFBC
:2012C000FFFFFFFFFFFFFFFFFFFFFFFFFFFFFFFFFFFFFFFFFFFFFFFFFFFFFFFFFFFFFFFF2E
:2012E000FFFFFFFFFFFFFFFFFFFFFFFFFFFFFFFFFFFFFFFFFFFFFFFFFFFFFFFFFFFFFFFF0E
:20130000FFFFFFFFFFFFFFFFFFFFFFFFFFFFFFFFFFFFFFFFFFFFFFFFFFFFFFFFFFFFFFFFED
:20132000FFFFFFFFFFFFFFFFFFFFFFFFFFFFFFFFFFFFFFFFFFFFFFFFFFFFFFFFFFFFFFFFCD
:207000005FC0000078C0000076C0000074C0000072C0000070C000006EC000006CC00000F3
:207020006AC0000068C00000DAC4000064C0000062C0000060C000005EC000005CC00000C0
:207040005AC000009DC0000056C0000054C0000052C0000050C000004EC000004CC0000053
:207060004AC0000048C0000046C0000044C0000042C0000040C000003EC000003CC00000F8
:207080003AC0000038C0000036C0000034C0000032C0000030C000002EC000002CC0000058
:2070A0002AC0000028C0000026C00000583E713E153F713E153FA63EC83E153FE83EFA3EE0
:2070C00011241FBECFEFDAE0DEBFCDBF11E0A0E0B1E0E4EBFEE702C005900D92A83AB107B7
:2070E000D9F721E0A8EAB1E001C01D92A13CB207E1F720D3DDC684CF84E08093E900809164
:20710000E80085FD0EC08091E8008B778093E8008091E80082FDF3CF8EB38111F9CF80E00C
:2071200008958091F100089593E09093E9009091E80095FF0AC08093F1005D9884E690E05A
:207140009093AF018093AE0108959091E8009E779093E8009091E80090FDEDCF9EB391118F
:20716000F9CF0895F89410926F001092810081E085BF15BE47985D9A289A0C94000008959D
:207180001F920F920FB60F9211242F938F939F93EF93FF9310928500109284008091AE01CB
:2071A0009091AF01009741F001979093AF018093AE01892B09F45D9A8091AC019091AD01D4
:2071C000009741F001979093AD018093AC01892B09F4289A8091A8019091A901019690930C
:2071E000A9018093A801E0E0F0E085919491019649F08091AA019091AB0101969093AB019F
:207200008093AA01FF91EF919F918F912F910F900FBE0F901F90189542E061EC82E05AD32B
:2072200042E161E883E056D342E160E884E052C38091B901982F9F77913239F59091BA01FD
:20724000903291F0913209F5813AF9F48091E800877F8093E80067E070E082E091E070D4DA
:207260008091E8008B770FC0813279F48091E800877F8093E80067E070E082E091E0B9D433
:207280008091E8008E778093E80008954F925F926F927F928F929F92AF92BF92CF92DF92BE
:2072A000EF92FF92CF93DF9384E08093E9008091E80082FF30C2289884E690E09093AD01B1
:2072C0008093AC0119DFD82F853481F48CE49DE19093AB018093AA0107B600FCFDCFF9992F
:2072E000FECF81E180935700E89503C0843521F403DF8DE019DFE6C18C34D9F38035C9F3FC
:20730000843721F484E410DF80E0F4CF813611F489E5F0CF813491F4EFDEC82FEDDE90E001
:20732000880F991F2C2F30E0322F2227330F822B932BAA2797FDA095BA2F98C1803711F4A4
:2073400083E5D8CF833549F4CFE9D1E08991ECDE21E0C63AD207D1F7B5C1863521F481E390
:20736000E3DE80E3C7CF833731F487E8DDDE85E9DBDE8EE1BFCF8536B9F4E0E0F0E083E0CB
:2073800095E080935700E89507B600FCFDCF90935700E89507B600FCFDCFE058FF4FE11514
:2073A00020E7F20771F7A5CF823719F4E1E0F0E00EC0863419F4E0E0F0E009C08E3419F4DD
:2073C000E3E0F0E004C0813539F4E2E0F0E089E08093570084918ECF823631F489E5A4DECF
:2073E00080E0A2DE80E886CF823419F0873609F0D5C01092AB011092AA017EDED82E7CDE8F
:20740000E82E7ADEC82F8BEB8C0F823010F08FE371CFF12CFD2810926F00D73609F045C034
:2074200081E180935700E8955701912CD1E0A114B10409F4AFC0C090B101D090B201E090E2
:20744000B301F090B401C634B9F4E92DF0E0EC29FD29849169DE992069F082E0C80ED11CE8
:20746000E11CF11CC092B101D092B201E092B301F092B4019D2615C0D701C601B695A795CE
:2074800097958795FFD450DEE2E0CE0ED11CE11CF11CC092B101D092B201E092B301F0924D
:2074A000B401F1E0AF1AB108C2CF8090B1019090B201A090B301B090B401C63421F0C12CCD
:2074C000D12CD1E030C083E0F40180935700E89507B600FCFDCFF3CFC63461F5DD2039F111
:2074E0004090B1015090B2016090B3017090B40103DE2C2D30E0382BF2010901D0935700BA
:20750000E8951124F2E04F0E511C611C711C4092B1015092B2016092B3017092B401DD269A
:2075200021E0E21AF108E114F104B1F627C0E4DDC82EF5CFE1DD682F8091B1019091B20176
:20754000A091B301B091B401B695A79597958795A1D44091B1015091B2016091B30170914F
:20756000B4014E5F5F4F6F4F7F4F4093B1015093B2016093B3017093B401D2CFC63441F425
:2075800085E0F40180935700E89507B600FCFDCF8DE0CADD82E080936F0094C0833471F4BD
:2075A000C091B101D091B201A7DD90E021E0FE010C0120935700E89511249BCE833601F5DF
:2075C000C090B101D090B201E090B301F090B40193DDF601E16090E021E00C01209357000D
:2075E000E8951124F2E0CF0ED11CE11CF11CC092B101D092B201E092B301F092B40179CE76
:207600008D3661F4E091B101F091B20185E080935700E89507B600FCFDCF6BCE823551F4F5
:20762000E091B101F091B201C591D4918D2F7CDD8C2F60CE843419F55FDD682F8091B101DE
:207640009091B201A091B301B091B401B695A795979587951FD48091B1019091B201A091F1
:20766000B301B091B4010296A11DB11D8093B1019093B201A093B301B093B4013ACE843600
:20768000F1F4C090B101D090B201E090B301F090B401D701C601B695A79597958795F2D364
:2076A00043DD22E0C20ED11CE11CF11CC092B101D092B201E092B301F092B40103C08B31EC
:2076C00009F0A5CE83E08093E9009091E8008091E8008E778093E80095FD11C08091E80081
:2076E00080FD04C08EB38111F9CF15C08091E8008E778093E80003C08EB3882361F08091CF
:20770000E80080FFF9CF84E08093E9008091E8008B778093E800DF91CF91FF90EF90DF9097
:20772000CF90BF90AF909F908F907F906F905F904F900895CF93309100081092000824B7E5
:2077400014BE88E10FB6F89480936000109260000FBE90E080E80FB6F8948093610090939B
:2077600061000FBE81E085BF82E085BF3F9A209A559A90E8909361001092610047985D9A39
:20778000289A109289009AEF9093880080936F0083E080938100E0E0F0E0859194910196ED
:2077A00019F081E08093B00121FF20C0809100013817E1F080930008789480910101882384
:2077C00039F08091A8019091A90188379140C8F31092010110920008F89481E08093010160
:2077E0008091B001882371F0BDDC0CC020FF04C08091B0018111F8CF23FF04C08091000160
:207800003813EECFD4D078941092AB011092AA01CEEF80910101882301F138DD1CD3809193
:20782000AA019091AB0181349F4110F0109201018091B5019091B60101969093B601809374
:20784000B501292F97FF02C02C2F291B220F281710F44798DECF479ADCCF8091E0008160C5
:207860008093E0007FDC80E090E0CF910895292F30E02230310539F02330310549F02130C1
:20788000310561F410C08EE390E02FE431E01EC0882371F0813089F08230A1F080E090E061
:2078A00020E030E013C082E190E02DE831E00EC084E090E02BE431E009C082E290E027E284
:2078C00031E004C08CE190E029E031E0FA013183208308958093E900EBEEF0E08081816066
:2078E0008083EDEEF0E010826093EC0040838091EE00881F8827881F08958091B90187FDBE
:2079000005C08091E80080FF0DC010C08091E80082FD04C08EB38111F9CF08958091E80020
:207920008B7707C08EB38111ECCF08958091E8008E778093E80008950F931F93CF93DF9395
:2079400041D048D0C8EDD0E088818F77888388818068888388818F7D888319BC1EBA109214
:20796000B70100EE10E0F80180818B7F808388818160888342E060E080E0ACDFE1EEF0E089
:2079800080818E7F8083E2EEF0E0808181608083808188608083F80180818E7F8083888152
:2079A00080618883DF91CF911F910F910895E7EDF0E08081816080838AE482BF81E0809372
:2079C000B801BACFE8EDF0E080818E7F80831092E20008951092DA001092E10008951F9241
:2079E0000F920FB60F9211242F933F934F935F936F937F938F939F93AF93BF93EF93FF93D3
:207A00008091DA0080FF1BC08091D80080FF17C08091DA008E7F8093DA008091D90080FF94
:207A20000BC080E189BD82E189BD09B400FEFDCF81E08EBB0FD203C019BC1EBA0BD28091BB
:207A4000E10080FF17C08091E20080FF13C08091E2008E7F8093E2008091E20080618093CE
:207A6000E2008091D80080628093D80019BC85E08EBBF0D18091E10084FF2CC08091E200D6
:207A800084FF28C080E189BD82E189BD09B400FEFDCF8091D8008F7D8093D8008091E100D2
:207AA0008F7E8093E1008091E2008F7E8093E2008091E20081608093E2008091B7018111AC
:207AC00004C08091E30087FF02C084E001C081E08EBBC0D18091E10083FF21C08091E200FE
:207AE00083FF1DC08091E100877F8093E10082E08EBB1092B7018091E1008E7F8093E10043
:207B00008091E2008E7F8093E2008091E20080618093E20042E060E080E0DCDE9BD1FF912F
:207B2000EF91BF91AF919F918F917F916F915F914F913F912F910F900FBE0F901F9018950E
:207B40002091BF013091C0012617370748F06115710539F42091E8002E772093E80001C0CC
:207B6000B901FC0120E061157105A1F18EB38823E1F18530E1F18091E80083FD34C080910D
:207B8000E80082FF06C08091E80082FF26C080E008958091E80080FFE6CF2091F300809177
:207BA000F20090E0922B6115710551F08830910538F421912093F100615071090196F3CF25
:207BC00021E0089709F020E08091E8008E778093E800C9CF2111CACFD6CF8EB3882329F006
:207BE000853089F604C081E0089582E0089583E008956115710529F42091E8002B77209399
:207C0000E8006115710521F12EB3222351F1253051F12091E80023FD20C02091E80022FF2C
:207C2000F3CFFC01CF014091F3002091F20030E0342B232B09F38091F1008193CF016150FE
:207C4000710981F7D9CF8EB3882359F0853059F08091E80080FFF7CF02C081E0089580E0F9
:207C6000089582E0089583E008950F931F93CF93DF9300D0CDB7DEB7E9EBF1E08091F100B0
:207C8000819381E0E13CF807C9F7D2DA8091E80083FFCBC02091B9013091BA01832F90E0D8
:207CA0008A30910508F0C1C0FC01EA5AF74CE4C0223809F0BAC08091BD0187708093E90044
:207CC0009091EB001092E9008091E800877F8093E80095FB882780F98093F1001092F100C4
:207CE00082C0822F8D7F09F0A0C0223009F09DC08091BB01811124C02091BD01277009F43E
:207D000094C02093E9008091EB0080FF19C08091EB00333011F4806211C080618093EB0029
:207D200081E090E0022E01C0880F0A94EAF78093EA001092EA008091EB0088608093EB0000
:207D40001092E9008091E800877F50C021116DC01091BB011F770FB7F8948091E800877FE6
:207D60008093E800CADD8091E80080FFFCCF8091E3008078812B8093E30080688093E300B2
:207D8000112311F083E001C082E08EBB0FBF4DC02058223008F049C0AE014F5F5F4F60913D
:207DA000BD018091BB019091BC0161DD009709F43CC02091E800277F2093E800BC018981EB
:207DC0009A81BEDE8091E8008B778093E8002DC0203859F58091E800877F8093E800809158
:207DE000B7018093F1008091E8008E778093E80084DD1BC0211119C09091BB019230A8F44C
:207E00008091E800877F8093E8009093B70175DD8091B701811104C08091E30087FF02C0E0
:207E200084E001C081E08EBBF7D98091E80083FF0AC08091EB0080628093EB008091E80089
:207E4000877F8093E8000F900F90DF91CF911F910F9108950895CF938EB3882359F0C091A1
:207E6000E900C7701092E9008091E80083FDFDDEC093E900CF910895EE0FFF1F0590F49195
:207E8000E02D0994F999FECF92BD81BDF89A992780B50895262FF999FECF1FBA92BD81BD0E
:207EA00020BD0FB6F894FA9AF99A0FBE01960895F894FFCF7701000000000000081C034132
:207EC0000072006400750069006E006F002000730072006C00200020000000220341007288
:207EE000006400750069006E006F0020004C0065006F006E006100720064006F000000040B
:207F000003090409023E0002010080320904000001020201000524001001042402040524AF
:207F2000060001070582030800FF09040100020A00000007050402100001070583021000C4
:1C7F4000011201100102000008032A36000100020100014341544552494E410047
:00000001FF
